{
  "_format": "hh-sol-artifact-1",
  "contractName": "ProjectDetail",
  "sourceName": "contracts/ProjectDetail.sol",
  "abi": [
    {
      "inputs": [],
      "stateMutability": "nonpayable",
      "type": "constructor"
    },
    {
      "inputs": [
        {
          "internalType": "contract IProject",
          "name": "project_",
          "type": "address"
        },
        {
          "internalType": "address",
          "name": "user_",
          "type": "address"
        }
      ],
      "name": "getProjectDetails",
      "outputs": [
        {
          "components": [
            {
              "internalType": "address",
              "name": "shareToken",
              "type": "address"
            },
            {
              "internalType": "uint256",
              "name": "shareTokenDecimals",
              "type": "uint256"
            },
            {
              "internalType": "uint256",
              "name": "shareTokenSellAmount",
              "type": "uint256"
            },
            {
              "internalType": "uint256",
              "name": "shareTokenBalance",
              "type": "uint256"
            },
            {
              "internalType": "uint256",
              "name": "shareTokenBalanceTemp",
              "type": "uint256"
            },
            {
              "internalType": "address",
              "name": "investToken",
              "type": "address"
            },
            {
              "internalType": "uint256",
              "name": "investTokenDecimals",
              "type": "uint256"
            },
            {
              "internalType": "uint256",
              "name": "investTokenBalance",
              "type": "uint256"
            },
            {
              "internalType": "string",
              "name": "title",
              "type": "string"
            },
            {
              "internalType": "string",
              "name": "description",
              "type": "string"
            },
            {
              "internalType": "string",
              "name": "category",
              "type": "string"
            },
            {
              "internalType": "string",
              "name": "projectWebsite",
              "type": "string"
            },
            {
              "internalType": "string",
              "name": "icon",
              "type": "string"
            },
            {
              "internalType": "string",
              "name": "symbolImage",
              "type": "string"
            },
            {
              "internalType": "uint256",
              "name": "shareTokenPrice",
              "type": "uint256"
            },
            {
              "internalType": "uint256",
              "name": "roi",
              "type": "uint256"
            },
            {
              "internalType": "uint256",
              "name": "apr",
              "type": "uint256"
            },
            {
              "internalType": "uint256",
              "name": "startDate",
              "type": "uint256"
            },
            {
              "internalType": "uint256",
              "name": "endDate",
              "type": "uint256"
            },
            {
              "internalType": "uint256",
              "name": "ongoingPercent",
              "type": "uint256"
            },
            {
              "internalType": "uint256",
              "name": "depositProfitAmount",
              "type": "uint256"
            },
            {
              "internalType": "uint256",
              "name": "originProfitAmount",
              "type": "uint256"
            },
            {
              "internalType": "uint256",
              "name": "sellAmount",
              "type": "uint256"
            },
            {
              "internalType": "uint256",
              "name": "investTotalAmount",
              "type": "uint256"
            },
            {
              "internalType": "bool",
              "name": "claimable",
              "type": "bool"
            },
            {
              "internalType": "uint256",
              "name": "claimableAmount",
              "type": "uint256"
            }
          ],
          "internalType": "struct ProjectDetail.Detail",
          "name": "",
          "type": "tuple"
        }
      ],
      "stateMutability": "view",
      "type": "function"
    },
    {
      "inputs": [
        {
          "internalType": "address",
          "name": "tokenAddr_",
          "type": "address"
        },
        {
          "internalType": "address[]",
          "name": "users_",
          "type": "address[]"
        }
      ],
      "name": "getTokenInfo",
      "outputs": [
        {
          "components": [
            {
              "internalType": "string",
              "name": "tokenName",
              "type": "string"
            },
            {
              "internalType": "address",
              "name": "owner",
              "type": "address"
            },
            {
              "internalType": "uint256",
              "name": "ownedBalance",
              "type": "uint256"
            }
          ],
          "internalType": "struct ProjectDetail.TokenDetail[]",
          "name": "",
          "type": "tuple[]"
        }
      ],
      "stateMutability": "view",
      "type": "function"
    }
  ],
  "bytecode": "0x608060405234801561001057600080fd5b5061145f806100206000396000f3fe608060405234801561001057600080fd5b50600436106100365760003560e01c806365b9b64a1461003b578063f861994d14610064575b600080fd5b61004e610049366004610eb5565b610084565b60405161005b9190610f4a565b60405180910390f35b610077610072366004611172565b610c11565b60405161005b9190611239565b61015e60405180610340016040528060006001600160a01b031681526020016000815260200160008152602001600081526020016000815260200160006001600160a01b03168152602001600081526020016000815260200160608152602001606081526020016060815260200160608152602001606081526020016060815260200160008152602001600081526020016000815260200160008152602001600081526020016000815260200160008152602001600081526020016000815260200160008152602001600015158152602001600081525090565b6000836001600160a01b0316636c9fa59e6040518163ffffffff1660e01b8152600401602060405180830381865afa15801561019e573d6000803e3d6000fd5b505050506040513d601f19601f820116820180604052508101906101c291906112c3565b90506000846001600160a01b031663badf822b6040518163ffffffff1660e01b8152600401602060405180830381865afa158015610204573d6000803e3d6000fd5b505050506040513d601f19601f8201168201806040525081019061022891906112c3565b905060008080806001600160a01b03881615610388576040516370a0823160e01b81526001600160a01b0389811660048301528716906370a0823190602401602060405180830381865afa158015610284573d6000803e3d6000fd5b505050506040513d601f19601f820116820180604052508101906102a891906112e7565b6040516370a0823160e01b81526001600160a01b038a81166004830152919550908616906370a0823190602401602060405180830381865afa1580156102f2573d6000803e3d6000fd5b505050506040513d601f19601f8201168201806040525081019061031691906112e7565b604051634e77247960e01b81526001600160a01b038a81166004830152919450908a1690634e772479906024016040805180830381865afa15801561035f573d6000803e3d6000fd5b505050506040513d601f19601f820116820180604052508101906103839190611300565b925090505b6000604051806103400160405280886001600160a01b03168152602001886001600160a01b031663313ce5676040518163ffffffff1660e01b8152600401602060405180830381865afa1580156103e3573d6000803e3d6000fd5b505050506040513d601f19601f820116820180604052508101906104079190611333565b60ff168152602001886001600160a01b0316633f407b846040518163ffffffff1660e01b8152600401602060405180830381865afa15801561044d573d6000803e3d6000fd5b505050506040513d601f19601f8201168201806040525081019061047191906112e7565b815260208101879052604080516370a0823160e01b81526001600160a01b038e811660048301529190920191908a16906370a0823190602401602060405180830381865afa1580156104c7573d6000803e3d6000fd5b505050506040513d601f19601f820116820180604052508101906104eb91906112e7565b8152602001876001600160a01b03168152602001876001600160a01b031663313ce5676040518163ffffffff1660e01b8152600401602060405180830381865afa15801561053d573d6000803e3d6000fd5b505050506040513d601f19601f820116820180604052508101906105619190611333565b60ff1681526020018581526020018b6001600160a01b0316634a79d50c6040518163ffffffff1660e01b8152600401600060405180830381865afa1580156105ad573d6000803e3d6000fd5b505050506040513d6000823e601f3d908101601f191682016040526105d59190810190611356565b81526020018b6001600160a01b0316637284e4166040518163ffffffff1660e01b8152600401600060405180830381865afa158015610618573d6000803e3d6000fd5b505050506040513d6000823e601f3d908101601f191682016040526106409190810190611356565b81526020018b6001600160a01b031663ef430aa66040518163ffffffff1660e01b8152600401600060405180830381865afa158015610683573d6000803e3d6000fd5b505050506040513d6000823e601f3d908101601f191682016040526106ab9190810190611356565b81526020018b6001600160a01b03166303e5979d6040518163ffffffff1660e01b8152600401600060405180830381865afa1580156106ee573d6000803e3d6000fd5b505050506040513d6000823e601f3d908101601f191682016040526107169190810190611356565b81526020018b6001600160a01b031663c557b9856040518163ffffffff1660e01b8152600401600060405180830381865afa158015610759573d6000803e3d6000fd5b505050506040513d6000823e601f3d908101601f191682016040526107819190810190611356565b81526020018b6001600160a01b0316634a4ebc3d6040518163ffffffff1660e01b8152600401600060405180830381865afa1580156107c4573d6000803e3d6000fd5b505050506040513d6000823e601f3d908101601f191682016040526107ec9190810190611356565b81526020018b6001600160a01b03166327d0d52d6040518163ffffffff1660e01b8152600401602060405180830381865afa15801561082f573d6000803e3d6000fd5b505050506040513d601f19601f8201168201806040525081019061085391906112e7565b81526020018b6001600160a01b0316634afdd0e76040518163ffffffff1660e01b8152600401602060405180830381865afa158015610896573d6000803e3d6000fd5b505050506040513d601f19601f820116820180604052508101906108ba91906112e7565b81526020018b6001600160a01b03166357ded9c96040518163ffffffff1660e01b8152600401602060405180830381865afa1580156108fd573d6000803e3d6000fd5b505050506040513d601f19601f8201168201806040525081019061092191906112e7565b81526020018b6001600160a01b0316630b97bc866040518163ffffffff1660e01b8152600401602060405180830381865afa158015610964573d6000803e3d6000fd5b505050506040513d601f19601f8201168201806040525081019061098891906112e7565b81526020018b6001600160a01b031663c24a0f8b6040518163ffffffff1660e01b8152600401602060405180830381865afa1580156109cb573d6000803e3d6000fd5b505050506040513d601f19601f820116820180604052508101906109ef91906112e7565b81526020018b6001600160a01b031663a5cb24406040518163ffffffff1660e01b8152600401602060405180830381865afa158015610a32573d6000803e3d6000fd5b505050506040513d601f19601f82011682018060405250810190610a5691906112e7565b81526020018b6001600160a01b03166356975b846040518163ffffffff1660e01b8152600401602060405180830381865afa158015610a99573d6000803e3d6000fd5b505050506040513d601f19601f82011682018060405250810190610abd91906112e7565b81526020018b6001600160a01b03166328f8692b6040518163ffffffff1660e01b8152600401602060405180830381865afa158015610b00573d6000803e3d6000fd5b505050506040513d601f19601f82011682018060405250810190610b2491906112e7565b81526020018b6001600160a01b0316633f407b846040518163ffffffff1660e01b8152600401602060405180830381865afa158015610b67573d6000803e3d6000fd5b505050506040513d601f19601f82011682018060405250810190610b8b91906112e7565b81526020018b6001600160a01b031663d71454456040518163ffffffff1660e01b8152600401602060405180830381865afa158015610bce573d6000803e3d6000fd5b505050506040513d601f19601f82011682018060405250810190610bf291906112e7565b8152921515602084015260409092019290925298975050505050505050565b80516060906001600160a01b038416610c695760405162461bcd60e51b8152602060048201526015602482015274696e76616c696420746f6b656e206164647265737360581b60448201526064015b60405180910390fd5b60008111610ca45760405162461bcd60e51b81526020600482015260086024820152676e6f20757365727360c01b6044820152606401610c60565b60008167ffffffffffffffff811115610cbf57610cbf61112b565b604051908082528060200260200182016040528015610d1d57816020015b610d0a60405180606001604052806060815260200160006001600160a01b03168152602001600081525090565b815260200190600190039081610cdd5790505b5090508460005b83811015610e92576040518060600160405280836001600160a01b03166306fdde036040518163ffffffff1660e01b8152600401600060405180830381865afa158015610d75573d6000803e3d6000fd5b505050506040513d6000823e601f3d908101601f19168201604052610d9d9190810190611356565b8152602001878381518110610db457610db46113ea565b60200260200101516001600160a01b03168152602001836001600160a01b03166370a08231898581518110610deb57610deb6113ea565b60200260200101516040518263ffffffff1660e01b8152600401610e1e91906001600160a01b0391909116815260200190565b602060405180830381865afa158015610e3b573d6000803e3d6000fd5b505050506040513d601f19601f82011682018060405250810190610e5f91906112e7565b815250838281518110610e7457610e746113ea565b60200260200101819052508080610e8a90611400565b915050610d24565b509095945050505050565b6001600160a01b0381168114610eb257600080fd5b50565b60008060408385031215610ec857600080fd5b8235610ed381610e9d565b91506020830135610ee381610e9d565b809150509250929050565b60005b83811015610f09578181015183820152602001610ef1565b83811115610f18576000848401525b50505050565b60008151808452610f36816020860160208601610eee565b601f01601f19169290920160200192915050565b60208152610f646020820183516001600160a01b03169052565b602082015160408201526040820151606082015260608201516080820152608082015160a0820152600060a0830151610fa860c08401826001600160a01b03169052565b5060c083015160e083015260e08301516101008181850152808501519150506103406101208181860152610fe0610360860184610f1e565b9250808601519050601f196101408187860301818801526110018584610f1e565b9450808801519250506101608187860301818801526110208584610f1e565b94508088015192505061018081878603018188015261103f8584610f1e565b9450808801519250506101a081878603018188015261105e8584610f1e565b9450808801519250506101c081878603018188015261107d8584610f1e565b908801516101e08881019190915288015161020080890191909152880151610220808901919091528801516102408089019190915288015161026080890191909152880151610280808901919091528801516102a0808901919091528801516102c0808901919091528801516102e080890191909152880151610300808901919091528801519094509150610320905061111a8187018315159052565b959095015193019290925250919050565b634e487b7160e01b600052604160045260246000fd5b604051601f8201601f1916810167ffffffffffffffff8111828210171561116a5761116a61112b565b604052919050565b6000806040838503121561118557600080fd5b823561119081610e9d565b915060208381013567ffffffffffffffff808211156111ae57600080fd5b818601915086601f8301126111c257600080fd5b8135818111156111d4576111d461112b565b8060051b91506111e5848301611141565b81815291830184019184810190898411156111ff57600080fd5b938501935b83851015611229578435925061121983610e9d565b8282529385019390850190611204565b8096505050505050509250929050565b60006020808301818452808551808352604092508286019150828160051b87010184880160005b838110156112b557603f1989840301855281516060815181865261128682870182610f1e565b838b01516001600160a01b0316878c015292890151958901959095525094870194925090860190600101611260565b509098975050505050505050565b6000602082840312156112d557600080fd5b81516112e081610e9d565b9392505050565b6000602082840312156112f957600080fd5b5051919050565b6000806040838503121561131357600080fd5b8251801515811461132357600080fd5b6020939093015192949293505050565b60006020828403121561134557600080fd5b815160ff811681146112e057600080fd5b60006020828403121561136857600080fd5b815167ffffffffffffffff8082111561138057600080fd5b818401915084601f83011261139457600080fd5b8151818111156113a6576113a661112b565b6113b9601f8201601f1916602001611141565b91508082528560208285010111156113d057600080fd5b6113e1816020840160208601610eee565b50949350505050565b634e487b7160e01b600052603260045260246000fd5b600060001982141561142257634e487b7160e01b600052601160045260246000fd5b506001019056fea2646970667358221220ee39b8ec72535a38e5554ad095cf991e58cc5144d4b5548c2a4a5004b625f48864736f6c634300080a0033",
  "linkReferences": {},
  "deployedLinkReferences": {}
}