{
  "_format": "hh-sol-artifact-1",
  "contractName": "ProjectDetail",
  "sourceName": "contracts/ProjectDetail.sol",
  "abi": [
    {
      "inputs": [],
      "stateMutability": "nonpayable",
      "type": "constructor"
    },
    {
      "inputs": [
        {
          "internalType": "contract IProject",
          "name": "project_",
          "type": "address"
        },
        {
          "internalType": "address",
          "name": "user_",
          "type": "address"
        }
      ],
      "name": "getProjectDetails",
      "outputs": [
        {
          "components": [
            {
              "internalType": "address",
              "name": "shareToken",
              "type": "address"
            },
            {
              "internalType": "uint256",
              "name": "shareTokenDecimals",
              "type": "uint256"
            },
            {
              "internalType": "uint256",
              "name": "shareTokenSellAmount",
              "type": "uint256"
            },
            {
              "internalType": "uint256",
              "name": "shareTokenBalance",
              "type": "uint256"
            },
            {
              "internalType": "uint256",
              "name": "shareTokenBalanceTemp",
              "type": "uint256"
            },
            {
              "internalType": "address",
              "name": "investToken",
              "type": "address"
            },
            {
              "internalType": "uint256",
              "name": "investTokenDecimals",
              "type": "uint256"
            },
            {
              "internalType": "uint256",
              "name": "investTokenBalance",
              "type": "uint256"
            },
            {
              "internalType": "string",
              "name": "title",
              "type": "string"
            },
            {
              "internalType": "string",
              "name": "description",
              "type": "string"
            },
            {
              "internalType": "string",
              "name": "category",
              "type": "string"
            },
            {
              "internalType": "string",
              "name": "projectWebsite",
              "type": "string"
            },
            {
              "internalType": "string",
              "name": "icon",
              "type": "string"
            },
            {
              "internalType": "string",
              "name": "symbolImage",
              "type": "string"
            },
            {
              "internalType": "uint256",
              "name": "shareTokenPrice",
              "type": "uint256"
            },
            {
              "internalType": "uint256",
              "name": "roi",
              "type": "uint256"
            },
            {
              "internalType": "uint256",
              "name": "apr",
              "type": "uint256"
            },
            {
              "internalType": "uint256",
              "name": "startDate",
              "type": "uint256"
            },
            {
              "internalType": "uint256",
              "name": "endDate",
              "type": "uint256"
            },
            {
              "internalType": "uint256",
              "name": "depositProfitAmount",
              "type": "uint256"
            },
            {
              "internalType": "uint256",
              "name": "sellAmount",
              "type": "uint256"
            },
            {
              "internalType": "uint256",
              "name": "investTotalAmount",
              "type": "uint256"
            },
            {
              "internalType": "bool",
              "name": "claimable",
              "type": "bool"
            },
            {
              "internalType": "uint256",
              "name": "claimableAmount",
              "type": "uint256"
            }
          ],
          "internalType": "struct ProjectDetail.Detail",
          "name": "",
          "type": "tuple"
        }
      ],
      "stateMutability": "view",
      "type": "function"
    },
    {
      "inputs": [
        {
          "internalType": "address",
          "name": "tokenAddr_",
          "type": "address"
        },
        {
          "internalType": "address[]",
          "name": "users_",
          "type": "address[]"
        }
      ],
      "name": "getTokenInfo",
      "outputs": [
        {
          "components": [
            {
              "internalType": "string",
              "name": "tokenName",
              "type": "string"
            },
            {
              "internalType": "address",
              "name": "owner",
              "type": "address"
            },
            {
              "internalType": "uint256",
              "name": "ownedBalance",
              "type": "uint256"
            }
          ],
          "internalType": "struct ProjectDetail.TokenDetail[]",
          "name": "",
          "type": "tuple[]"
        }
      ],
      "stateMutability": "view",
      "type": "function"
    }
  ],
  "bytecode": "0x608060405234801561001057600080fd5b506114e7806100206000396000f3fe608060405234801561001057600080fd5b50600436106100365760003560e01c806365b9b64a1461003b578063f861994d14610064575b600080fd5b61004e61004936600461105d565b610084565b60405161005b919061121c565b60405180910390f35b610077610072366004610f38565b610c8e565b60405161005b9190611192565b61015060405180610300016040528060006001600160a01b031681526020016000815260200160008152602001600081526020016000815260200160006001600160a01b0316815260200160008152602001600081526020016060815260200160608152602001606081526020016060815260200160608152602001606081526020016000815260200160008152602001600081526020016000815260200160008152602001600081526020016000815260200160008152602001600015158152602001600081525090565b6000836001600160a01b0316636c9fa59e6040518163ffffffff1660e01b815260040160206040518083038186803b15801561018b57600080fd5b505afa15801561019f573d6000803e3d6000fd5b505050506040513d601f19601f820116820180604052508101906101c39190611039565b90506000846001600160a01b031663badf822b6040518163ffffffff1660e01b815260040160206040518083038186803b15801561020057600080fd5b505afa158015610214573d6000803e3d6000fd5b505050506040513d601f19601f820116820180604052508101906102389190611039565b905060008080806001600160a01b038816156103c5576040516370a0823160e01b81526001600160a01b0389811660048301528716906370a082319060240160206040518083038186803b15801561028f57600080fd5b505afa1580156102a3573d6000803e3d6000fd5b505050506040513d601f19601f820116820180604052508101906102c7919061112a565b6040516370a0823160e01b81526001600160a01b038a81166004830152919550908616906370a082319060240160206040518083038186803b15801561030c57600080fd5b505afa158015610320573d6000803e3d6000fd5b505050506040513d601f19601f82011682018060405250810190610344919061112a565b604051634e77247960e01b81526001600160a01b038a81166004830152919450908a1690634e77247990602401604080518083038186803b15801561038857600080fd5b505afa15801561039c573d6000803e3d6000fd5b505050506040513d601f19601f820116820180604052508101906103c09190611006565b925090505b6000604051806103000160405280886001600160a01b03168152602001886001600160a01b031663313ce5676040518163ffffffff1660e01b815260040160206040518083038186803b15801561041b57600080fd5b505afa15801561042f573d6000803e3d6000fd5b505050506040513d601f19601f820116820180604052508101906104539190611143565b60ff168152602001886001600160a01b0316633f407b846040518163ffffffff1660e01b815260040160206040518083038186803b15801561049457600080fd5b505afa1580156104a8573d6000803e3d6000fd5b505050506040513d601f19601f820116820180604052508101906104cc919061112a565b815260208101879052604080516370a0823160e01b81526001600160a01b038e811660048301529190920191908a16906370a082319060240160206040518083038186803b15801561051d57600080fd5b505afa158015610531573d6000803e3d6000fd5b505050506040513d601f19601f82011682018060405250810190610555919061112a565b8152602001876001600160a01b03168152602001876001600160a01b031663313ce5676040518163ffffffff1660e01b815260040160206040518083038186803b1580156105a257600080fd5b505afa1580156105b6573d6000803e3d6000fd5b505050506040513d601f19601f820116820180604052508101906105da9190611143565b60ff1681526020018581526020018b6001600160a01b0316634a79d50c6040518163ffffffff1660e01b815260040160006040518083038186803b15801561062157600080fd5b505afa158015610635573d6000803e3d6000fd5b505050506040513d6000823e601f3d908101601f1916820160405261065d9190810190611096565b81526020018b6001600160a01b0316637284e4166040518163ffffffff1660e01b815260040160006040518083038186803b15801561069b57600080fd5b505afa1580156106af573d6000803e3d6000fd5b505050506040513d6000823e601f3d908101601f191682016040526106d79190810190611096565b81526020018b6001600160a01b031663ef430aa66040518163ffffffff1660e01b815260040160006040518083038186803b15801561071557600080fd5b505afa158015610729573d6000803e3d6000fd5b505050506040513d6000823e601f3d908101601f191682016040526107519190810190611096565b81526020018b6001600160a01b03166303e5979d6040518163ffffffff1660e01b815260040160006040518083038186803b15801561078f57600080fd5b505afa1580156107a3573d6000803e3d6000fd5b505050506040513d6000823e601f3d908101601f191682016040526107cb9190810190611096565b81526020018b6001600160a01b031663c557b9856040518163ffffffff1660e01b815260040160006040518083038186803b15801561080957600080fd5b505afa15801561081d573d6000803e3d6000fd5b505050506040513d6000823e601f3d908101601f191682016040526108459190810190611096565b81526020018b6001600160a01b0316634a4ebc3d6040518163ffffffff1660e01b815260040160006040518083038186803b15801561088357600080fd5b505afa158015610897573d6000803e3d6000fd5b505050506040513d6000823e601f3d908101601f191682016040526108bf9190810190611096565b81526020018b6001600160a01b03166327d0d52d6040518163ffffffff1660e01b815260040160206040518083038186803b1580156108fd57600080fd5b505afa158015610911573d6000803e3d6000fd5b505050506040513d601f19601f82011682018060405250810190610935919061112a565b81526020018b6001600160a01b0316634afdd0e76040518163ffffffff1660e01b815260040160206040518083038186803b15801561097357600080fd5b505afa158015610987573d6000803e3d6000fd5b505050506040513d601f19601f820116820180604052508101906109ab919061112a565b81526020018b6001600160a01b03166357ded9c96040518163ffffffff1660e01b815260040160206040518083038186803b1580156109e957600080fd5b505afa1580156109fd573d6000803e3d6000fd5b505050506040513d601f19601f82011682018060405250810190610a21919061112a565b81526020018b6001600160a01b0316630b97bc866040518163ffffffff1660e01b815260040160206040518083038186803b158015610a5f57600080fd5b505afa158015610a73573d6000803e3d6000fd5b505050506040513d601f19601f82011682018060405250810190610a97919061112a565b81526020018b6001600160a01b031663c24a0f8b6040518163ffffffff1660e01b815260040160206040518083038186803b158015610ad557600080fd5b505afa158015610ae9573d6000803e3d6000fd5b505050506040513d601f19601f82011682018060405250810190610b0d919061112a565b81526020018b6001600160a01b03166356975b846040518163ffffffff1660e01b815260040160206040518083038186803b158015610b4b57600080fd5b505afa158015610b5f573d6000803e3d6000fd5b505050506040513d601f19601f82011682018060405250810190610b83919061112a565b81526020018b6001600160a01b0316633f407b846040518163ffffffff1660e01b815260040160206040518083038186803b158015610bc157600080fd5b505afa158015610bd5573d6000803e3d6000fd5b505050506040513d601f19601f82011682018060405250810190610bf9919061112a565b81526020018b6001600160a01b031663d71454456040518163ffffffff1660e01b815260040160206040518083038186803b158015610c3757600080fd5b505afa158015610c4b573d6000803e3d6000fd5b505050506040513d601f19601f82011682018060405250810190610c6f919061112a565b8152921515602084015260409092019290925298975050505050505050565b80516060906001600160a01b038416610ce65760405162461bcd60e51b8152602060048201526015602482015274696e76616c696420746f6b656e206164647265737360581b60448201526064015b60405180910390fd5b60008111610d215760405162461bcd60e51b81526020600482015260086024820152676e6f20757365727360c01b6044820152606401610cdd565b60008167ffffffffffffffff811115610d3c57610d3c611483565b604051908082528060200260200182016040528015610d9a57816020015b610d8760405180606001604052806060815260200160006001600160a01b03168152602001600081525090565b815260200190600190039081610d5a5790505b5090508460005b83811015610f2d576040518060600160405280836001600160a01b03166306fdde036040518163ffffffff1660e01b815260040160006040518083038186803b158015610ded57600080fd5b505afa158015610e01573d6000803e3d6000fd5b505050506040513d6000823e601f3d908101601f19168201604052610e299190810190611096565b8152602001878381518110610e4057610e4061146d565b60200260200101516001600160a01b03168152602001836001600160a01b03166370a08231898581518110610e7757610e7761146d565b60200260200101516040518263ffffffff1660e01b8152600401610eaa91906001600160a01b0391909116815260200190565b60206040518083038186803b158015610ec257600080fd5b505afa158015610ed6573d6000803e3d6000fd5b505050506040513d601f19601f82011682018060405250810190610efa919061112a565b815250838281518110610f0f57610f0f61146d565b60200260200101819052508080610f2590611444565b915050610da1565b509095945050505050565b60008060408385031215610f4b57600080fd5b8235610f5681611499565b915060208381013567ffffffffffffffff80821115610f7457600080fd5b818601915086601f830112610f8857600080fd5b813581811115610f9a57610f9a611483565b8060051b9150610fab8483016113e3565b8181528481019084860184860187018b1015610fc657600080fd5b600095505b83861015610ff55780359450610fe085611499565b84835260019590950194918601918601610fcb565b508096505050505050509250929050565b6000806040838503121561101957600080fd5b8251801515811461102957600080fd5b6020939093015192949293505050565b60006020828403121561104b57600080fd5b815161105681611499565b9392505050565b6000806040838503121561107057600080fd5b823561107b81611499565b9150602083013561108b81611499565b809150509250929050565b6000602082840312156110a857600080fd5b815167ffffffffffffffff808211156110c057600080fd5b818401915084601f8301126110d457600080fd5b8151818111156110e6576110e6611483565b6110f9601f8201601f19166020016113e3565b915080825285602082850101111561111057600080fd5b611121816020840160208601611414565b50949350505050565b60006020828403121561113c57600080fd5b5051919050565b60006020828403121561115557600080fd5b815160ff8116811461105657600080fd5b6000815180845261117e816020860160208601611414565b601f01601f19169290920160200192915050565b60006020808301818452808551808352604092508286019150828160051b87010184880160005b8381101561120e57603f198984030185528151606081518186526111df82870182611166565b838b01516001600160a01b0316878c0152928901519589019590955250948701949250908601906001016111b9565b509098975050505050505050565b602081526112366020820183516001600160a01b03169052565b602082015160408201526040820151606082015260608201516080820152608082015160a0820152600060a083015161127a60c08401826001600160a01b03169052565b5060c083015160e083015260e083015161010081818501528085015191505061030061012081818601526112b2610320860184611166565b9250808601519050601f196101408187860301818801526112d38584611166565b9450808801519250506101608187860301818801526112f28584611166565b9450808801519250506101808187860301818801526113118584611166565b9450808801519250506101a08187860301818801526113308584611166565b9450808801519250506101c081878603018188015261134f8584611166565b908801516101e08881019190915288015161020080890191909152880151610220808901919091528801516102408089019190915288015161026080890191909152880151610280808901919091528801516102a0808901919091528801516102c08089019190915288015190945091506102e090506113d28187018315159052565b959095015193019290925250919050565b604051601f8201601f1916810167ffffffffffffffff8111828210171561140c5761140c611483565b604052919050565b60005b8381101561142f578181015183820152602001611417565b8381111561143e576000848401525b50505050565b600060001982141561146657634e487b7160e01b600052601160045260246000fd5b5060010190565b634e487b7160e01b600052603260045260246000fd5b634e487b7160e01b600052604160045260246000fd5b6001600160a01b03811681146114ae57600080fd5b5056fea264697066735822122004c698568d67801b6f4596a426f68c8d1599a6043d67f7363c63e803edf6d06064736f6c63430008070033",
  "linkReferences": {},
  "deployedLinkReferences": {}
}