{
  "_format": "hh-sol-artifact-1",
  "contractName": "TokenTemplate",
  "sourceName": "contracts/TokenTemplate.sol",
  "abi": [
    {
      "inputs": [
        {
          "internalType": "string",
          "name": "_name",
          "type": "string"
        },
        {
          "internalType": "string",
          "name": "_symbol",
          "type": "string"
        },
        {
          "internalType": "uint256",
          "name": "_total",
          "type": "uint256"
        },
        {
          "internalType": "uint8",
          "name": "_decimal",
          "type": "uint8"
        },
        {
          "internalType": "uint256",
          "name": "_sellAmount",
          "type": "uint256"
        },
        {
          "internalType": "address",
          "name": "treasury",
          "type": "address"
        }
      ],
      "stateMutability": "nonpayable",
      "type": "constructor"
    },
    {
      "anonymous": false,
      "inputs": [
        {
          "indexed": true,
          "internalType": "address",
          "name": "owner",
          "type": "address"
        },
        {
          "indexed": true,
          "internalType": "address",
          "name": "spender",
          "type": "address"
        },
        {
          "indexed": false,
          "internalType": "uint256",
          "name": "value",
          "type": "uint256"
        }
      ],
      "name": "Approval",
      "type": "event"
    },
    {
      "anonymous": false,
      "inputs": [
        {
          "indexed": false,
          "internalType": "uint256",
          "name": "id",
          "type": "uint256"
        }
      ],
      "name": "Snapshot",
      "type": "event"
    },
    {
      "anonymous": false,
      "inputs": [
        {
          "indexed": true,
          "internalType": "address",
          "name": "from",
          "type": "address"
        },
        {
          "indexed": true,
          "internalType": "address",
          "name": "to",
          "type": "address"
        },
        {
          "indexed": false,
          "internalType": "uint256",
          "name": "value",
          "type": "uint256"
        }
      ],
      "name": "Transfer",
      "type": "event"
    },
    {
      "inputs": [
        {
          "internalType": "address",
          "name": "owner",
          "type": "address"
        },
        {
          "internalType": "address",
          "name": "spender",
          "type": "address"
        }
      ],
      "name": "allowance",
      "outputs": [
        {
          "internalType": "uint256",
          "name": "",
          "type": "uint256"
        }
      ],
      "stateMutability": "view",
      "type": "function"
    },
    {
      "inputs": [
        {
          "internalType": "address",
          "name": "spender",
          "type": "address"
        },
        {
          "internalType": "uint256",
          "name": "amount",
          "type": "uint256"
        }
      ],
      "name": "approve",
      "outputs": [
        {
          "internalType": "bool",
          "name": "",
          "type": "bool"
        }
      ],
      "stateMutability": "nonpayable",
      "type": "function"
    },
    {
      "inputs": [
        {
          "internalType": "address",
          "name": "account",
          "type": "address"
        }
      ],
      "name": "balanceOf",
      "outputs": [
        {
          "internalType": "uint256",
          "name": "",
          "type": "uint256"
        }
      ],
      "stateMutability": "view",
      "type": "function"
    },
    {
      "inputs": [
        {
          "internalType": "address",
          "name": "account",
          "type": "address"
        },
        {
          "internalType": "uint256",
          "name": "snapshotId",
          "type": "uint256"
        }
      ],
      "name": "balanceOfAt",
      "outputs": [
        {
          "internalType": "uint256",
          "name": "",
          "type": "uint256"
        }
      ],
      "stateMutability": "view",
      "type": "function"
    },
    {
      "inputs": [],
      "name": "decimals",
      "outputs": [
        {
          "internalType": "uint8",
          "name": "",
          "type": "uint8"
        }
      ],
      "stateMutability": "view",
      "type": "function"
    },
    {
      "inputs": [
        {
          "internalType": "address",
          "name": "spender",
          "type": "address"
        },
        {
          "internalType": "uint256",
          "name": "subtractedValue",
          "type": "uint256"
        }
      ],
      "name": "decreaseAllowance",
      "outputs": [
        {
          "internalType": "bool",
          "name": "",
          "type": "bool"
        }
      ],
      "stateMutability": "nonpayable",
      "type": "function"
    },
    {
      "inputs": [],
      "name": "getCurrentSnapshotId",
      "outputs": [
        {
          "internalType": "uint256",
          "name": "",
          "type": "uint256"
        }
      ],
      "stateMutability": "view",
      "type": "function"
    },
    {
      "inputs": [
        {
          "internalType": "address",
          "name": "spender",
          "type": "address"
        },
        {
          "internalType": "uint256",
          "name": "addedValue",
          "type": "uint256"
        }
      ],
      "name": "increaseAllowance",
      "outputs": [
        {
          "internalType": "bool",
          "name": "",
          "type": "bool"
        }
      ],
      "stateMutability": "nonpayable",
      "type": "function"
    },
    {
      "inputs": [],
      "name": "name",
      "outputs": [
        {
          "internalType": "string",
          "name": "",
          "type": "string"
        }
      ],
      "stateMutability": "view",
      "type": "function"
    },
    {
      "inputs": [],
      "name": "sellAmount",
      "outputs": [
        {
          "internalType": "uint256",
          "name": "",
          "type": "uint256"
        }
      ],
      "stateMutability": "view",
      "type": "function"
    },
    {
      "inputs": [],
      "name": "snapshot",
      "outputs": [],
      "stateMutability": "nonpayable",
      "type": "function"
    },
    {
      "inputs": [],
      "name": "symbol",
      "outputs": [
        {
          "internalType": "string",
          "name": "",
          "type": "string"
        }
      ],
      "stateMutability": "view",
      "type": "function"
    },
    {
      "inputs": [],
      "name": "totalSupply",
      "outputs": [
        {
          "internalType": "uint256",
          "name": "",
          "type": "uint256"
        }
      ],
      "stateMutability": "view",
      "type": "function"
    },
    {
      "inputs": [
        {
          "internalType": "uint256",
          "name": "snapshotId",
          "type": "uint256"
        }
      ],
      "name": "totalSupplyAt",
      "outputs": [
        {
          "internalType": "uint256",
          "name": "",
          "type": "uint256"
        }
      ],
      "stateMutability": "view",
      "type": "function"
    },
    {
      "inputs": [
        {
          "internalType": "address",
          "name": "to",
          "type": "address"
        },
        {
          "internalType": "uint256",
          "name": "amount",
          "type": "uint256"
        }
      ],
      "name": "transfer",
      "outputs": [
        {
          "internalType": "bool",
          "name": "",
          "type": "bool"
        }
      ],
      "stateMutability": "nonpayable",
      "type": "function"
    },
    {
      "inputs": [
        {
          "internalType": "address",
          "name": "from",
          "type": "address"
        },
        {
          "internalType": "address",
          "name": "to",
          "type": "address"
        },
        {
          "internalType": "uint256",
          "name": "amount",
          "type": "uint256"
        }
      ],
      "name": "transferFrom",
      "outputs": [
        {
          "internalType": "bool",
          "name": "",
          "type": "bool"
        }
      ],
      "stateMutability": "nonpayable",
      "type": "function"
    }
  ],
  "bytecode": "0x60806040523480156200001157600080fd5b506040516200159e3803806200159e833981016040819052620000349162000672565b8551869086906200004d906003906020850190620004ff565b50805162000063906004906020840190620004ff565b50506009805460ff191660ff861617905550600a829055620000863085620000bd565b62000093303384620001a3565b30600081815260208190526040902054620000b191908390620001a3565b505050505050620007c8565b6001600160a01b038216620001195760405162461bcd60e51b815260206004820152601f60248201527f45524332303a206d696e7420746f20746865207a65726f20616464726573730060448201526064015b60405180910390fd5b620001276000838362000377565b80600260008282546200013b919062000740565b90915550506001600160a01b038216600090815260208190526040812080548392906200016a90849062000740565b90915550506040518181526001600160a01b038316906000906000805160206200157e8339815191529060200160405180910390a35050565b6001600160a01b038316620002095760405162461bcd60e51b815260206004820152602560248201527f45524332303a207472616e736665722066726f6d20746865207a65726f206164604482015264647265737360d81b606482015260840162000110565b6001600160a01b0382166200026d5760405162461bcd60e51b815260206004820152602360248201527f45524332303a207472616e7366657220746f20746865207a65726f206164647260448201526265737360e81b606482015260840162000110565b6200027a83838362000377565b6001600160a01b03831660009081526020819052604090205481811015620002f45760405162461bcd60e51b815260206004820152602660248201527f45524332303a207472616e7366657220616d6f756e7420657863656564732062604482015265616c616e636560d01b606482015260840162000110565b6001600160a01b038085166000908152602081905260408082208585039055918516815290812080548492906200032d90849062000740565b92505081905550826001600160a01b0316846001600160a01b03166000805160206200157e833981519152846040516200036991815260200190565b60405180910390a350505050565b6200038f8383836200039460201b620004921760201c565b505050565b620003ac8383836200038f60201b620004b11760201c565b6001600160a01b038316620003d057620003c682620003fb565b6200038f62000433565b6001600160a01b038216620003ea57620003c683620003fb565b620003f583620003fb565b6200038f825b6001600160a01b0381166000908152600560209081526040808320918390529091205462000430919062000445565b62000445565b50565b6200044360066200042a60025490565b565b60006200045162000494565b9050806200045f84620004b2565b10156200038f578254600180820185556000858152602080822090930193909355938401805494850181558252902090910155565b6000620004ad6008620004fb60201b620004df1760201c565b905090565b8054600090620004c457506000919050565b81548290620004d6906001906200075b565b81548110620004e957620004e962000775565b90600052602060002001549050919050565b5490565b8280546200050d906200078b565b90600052602060002090601f0160209004810192826200053157600085556200057c565b82601f106200054c57805160ff19168380011785556200057c565b828001600101855582156200057c579182015b828111156200057c5782518255916020019190600101906200055f565b506200058a9291506200058e565b5090565b5b808211156200058a57600081556001016200058f565b634e487b7160e01b600052604160045260246000fd5b600082601f830112620005cd57600080fd5b81516001600160401b0380821115620005ea57620005ea620005a5565b604051601f8301601f19908116603f01168101908282118183101715620006155762000615620005a5565b816040528381526020925086838588010111156200063257600080fd5b600091505b8382101562000656578582018301518183018401529082019062000637565b83821115620006685760008385830101525b9695505050505050565b60008060008060008060c087890312156200068c57600080fd5b86516001600160401b0380821115620006a457600080fd5b620006b28a838b01620005bb565b97506020890151915080821115620006c957600080fd5b50620006d889828a01620005bb565b95505060408701519350606087015160ff81168114620006f757600080fd5b608088015160a089015191945092506001600160a01b03811681146200071c57600080fd5b809150509295509295509295565b634e487b7160e01b600052601160045260246000fd5b600082198211156200075657620007566200072a565b500190565b6000828210156200077057620007706200072a565b500390565b634e487b7160e01b600052603260045260246000fd5b600181811c90821680620007a057607f821691505b60208210811415620007c257634e487b7160e01b600052602260045260246000fd5b50919050565b610da680620007d86000396000f3fe608060405234801561001057600080fd5b50600436106101005760003560e01c80635439ad8611610097578063981b24d011610066578063981b24d0146101f2578063a457c2d714610205578063a9059cbb14610218578063dd62ed3e1461022b57600080fd5b80635439ad86146101af57806370a08231146101b757806395d89b41146101e05780639711715a146101e857600080fd5b8063313ce567116100d3578063313ce5671461016b57806339509351146101805780633f407b84146101935780634ee2cd7e1461019c57600080fd5b806306fdde0314610105578063095ea7b31461012357806318160ddd1461014657806323b872dd14610158575b600080fd5b61010d61023e565b60405161011a9190610b7f565b60405180910390f35b610136610131366004610beb565b6102d0565b604051901515815260200161011a565b6002545b60405190815260200161011a565b610136610166366004610c15565b6102ea565b60095460405160ff909116815260200161011a565b61013661018e366004610beb565b61030e565b61014a600a5481565b61014a6101aa366004610beb565b610330565b61014a610389565b61014a6101c5366004610c51565b6001600160a01b031660009081526020819052604090205490565b61010d610394565b6101f06103a3565b005b61014a610200366004610c6c565b6103ae565b610136610213366004610beb565b6103d9565b610136610226366004610beb565b610459565b61014a610239366004610c85565b610467565b60606003805461024d90610cb8565b80601f016020809104026020016040519081016040528092919081815260200182805461027990610cb8565b80156102c65780601f1061029b576101008083540402835291602001916102c6565b820191906000526020600020905b8154815290600101906020018083116102a957829003601f168201915b5050505050905090565b6000336102de8185856104e3565b60019150505b92915050565b6000336102f8858285610607565b610303858585610681565b506001949350505050565b6000336102de8185856103218383610467565b61032b9190610d09565b6104e3565b6001600160a01b03821660009081526005602052604081208190819061035790859061085a565b915091508161037e576001600160a01b038516600090815260208190526040902054610380565b805b95945050505050565b6000806102e4610951565b60606004805461024d90610cb8565b6103ab610961565b50565b60008060006103be84600661085a565b91509150816103cf576002546103d1565b805b949350505050565b600033816103e78286610467565b90508381101561044c5760405162461bcd60e51b815260206004820152602560248201527f45524332303a2064656372656173656420616c6c6f77616e63652062656c6f77604482015264207a65726f60d81b60648201526084015b60405180910390fd5b61030382868684036104e3565b6000336102de818585610681565b6001600160a01b03918216600090815260016020908152604080832093909416825291909152205490565b6001600160a01b0383166104b6576104a9826109bb565b6104b16109ed565b505050565b6001600160a01b0382166104cd576104a9836109bb565b6104d6836109bb565b6104b1826109bb565b5490565b6001600160a01b0383166105455760405162461bcd60e51b8152602060048201526024808201527f45524332303a20617070726f76652066726f6d20746865207a65726f206164646044820152637265737360e01b6064820152608401610443565b6001600160a01b0382166105a65760405162461bcd60e51b815260206004820152602260248201527f45524332303a20617070726f766520746f20746865207a65726f206164647265604482015261737360f01b6064820152608401610443565b6001600160a01b0383811660008181526001602090815260408083209487168084529482529182902085905590518481527f8c5be1e5ebec7d5bd14f71427d1e84f3dd0314c0f7b2291e5b200ac8c7c3b925910160405180910390a3505050565b60006106138484610467565b9050600019811461067b578181101561066e5760405162461bcd60e51b815260206004820152601d60248201527f45524332303a20696e73756666696369656e7420616c6c6f77616e63650000006044820152606401610443565b61067b84848484036104e3565b50505050565b6001600160a01b0383166106e55760405162461bcd60e51b815260206004820152602560248201527f45524332303a207472616e736665722066726f6d20746865207a65726f206164604482015264647265737360d81b6064820152608401610443565b6001600160a01b0382166107475760405162461bcd60e51b815260206004820152602360248201527f45524332303a207472616e7366657220746f20746865207a65726f206164647260448201526265737360e81b6064820152608401610443565b6107528383836109fd565b6001600160a01b038316600090815260208190526040902054818110156107ca5760405162461bcd60e51b815260206004820152602660248201527f45524332303a207472616e7366657220616d6f756e7420657863656564732062604482015265616c616e636560d01b6064820152608401610443565b6001600160a01b03808516600090815260208190526040808220858503905591851681529081208054849290610801908490610d09565b92505081905550826001600160a01b0316846001600160a01b03167fddf252ad1be2c89b69c2b068fc378daa952ba7f163c4a11628f55a4df523b3ef8460405161084d91815260200190565b60405180910390a361067b565b600080600084116108a65760405162461bcd60e51b815260206004820152601660248201527504552433230536e617073686f743a20696420697320360541b6044820152606401610443565b6108ae610951565b8411156108fd5760405162461bcd60e51b815260206004820152601d60248201527f4552433230536e617073686f743a206e6f6e6578697374656e742069640000006044820152606401610443565b60006109098486610a08565b845490915081141561092257600080925092505061094a565b600184600101828154811061093957610939610d21565b906000526020600020015492509250505b9250929050565b600061095c60085490565b905090565b6000610971600880546001019055565b600061097b610951565b90507f8030e83b04d87bef53480e26263266d6ca66863aa8506aca6f2559d18aa1cb67816040516109ae91815260200190565b60405180910390a1919050565b6001600160a01b038116600090815260056020908152604080832091839052909120546103ab9190610acb565b610acb565b6109fb60066109e860025490565b565b6104b1838383610492565b8154600090610a19575060006102e4565b82546000905b80821015610a75576000610a338383610b15565b905084868281548110610a4857610a48610d21565b90600052602060002001541115610a6157809150610a6f565b610a6c816001610d09565b92505b50610a1f565b600082118015610aaa57508385610a8d600185610d37565b81548110610a9d57610a9d610d21565b9060005260206000200154145b15610ac357610aba600183610d37565b925050506102e4565b5090506102e4565b6000610ad5610951565b905080610ae184610b37565b10156104b1578254600180820185556000858152602080822090930193909355938401805494850181558252902090910155565b6000610b246002848418610d4e565b610b3090848416610d09565b9392505050565b8054600090610b4857506000919050565b81548290610b5890600190610d37565b81548110610b6857610b68610d21565b90600052602060002001549050919050565b919050565b600060208083528351808285015260005b81811015610bac57858101830151858201604001528201610b90565b81811115610bbe576000604083870101525b50601f01601f1916929092016040019392505050565b80356001600160a01b0381168114610b7a57600080fd5b60008060408385031215610bfe57600080fd5b610c0783610bd4565b946020939093013593505050565b600080600060608486031215610c2a57600080fd5b610c3384610bd4565b9250610c4160208501610bd4565b9150604084013590509250925092565b600060208284031215610c6357600080fd5b610b3082610bd4565b600060208284031215610c7e57600080fd5b5035919050565b60008060408385031215610c9857600080fd5b610ca183610bd4565b9150610caf60208401610bd4565b90509250929050565b600181811c90821680610ccc57607f821691505b60208210811415610ced57634e487b7160e01b600052602260045260246000fd5b50919050565b634e487b7160e01b600052601160045260246000fd5b60008219821115610d1c57610d1c610cf3565b500190565b634e487b7160e01b600052603260045260246000fd5b600082821015610d4957610d49610cf3565b500390565b600082610d6b57634e487b7160e01b600052601260045260246000fd5b50049056fea26469706673582212206a3aa279e8e6ba65e6e5a4c76ed100a0ff6c557b60a95152180323993274148064736f6c634300080a0033ddf252ad1be2c89b69c2b068fc378daa952ba7f163c4a11628f55a4df523b3ef",
  "linkReferences": {},
  "deployedLinkReferences": {}
}