{
  "_format": "hh-sol-artifact-1",
  "contractName": "Project",
  "sourceName": "contracts/Project.sol",
  "abi": [
    {
      "inputs": [
        {
          "internalType": "string[]",
          "name": "_infoST",
          "type": "string[]"
        },
        {
          "internalType": "uint256[]",
          "name": "_infoNB",
          "type": "uint256[]"
        },
        {
          "internalType": "address[]",
          "name": "_infoAD",
          "type": "address[]"
        },
        {
          "internalType": "uint256",
          "name": "_sellAmount",
          "type": "uint256"
        }
      ],
      "stateMutability": "nonpayable",
      "type": "constructor"
    },
    {
      "anonymous": false,
      "inputs": [
        {
          "indexed": false,
          "internalType": "address",
          "name": "",
          "type": "address"
        },
        {
          "indexed": false,
          "internalType": "uint256",
          "name": "",
          "type": "uint256"
        },
        {
          "indexed": false,
          "internalType": "uint256",
          "name": "",
          "type": "uint256"
        }
      ],
      "name": "Participated",
      "type": "event"
    },
    {
      "anonymous": false,
      "inputs": [
        {
          "indexed": false,
          "internalType": "address",
          "name": "",
          "type": "address"
        },
        {
          "indexed": false,
          "internalType": "uint256",
          "name": "",
          "type": "uint256"
        },
        {
          "indexed": false,
          "internalType": "uint256",
          "name": "",
          "type": "uint256"
        }
      ],
      "name": "Refund",
      "type": "event"
    },
    {
      "anonymous": false,
      "inputs": [
        {
          "indexed": false,
          "internalType": "address",
          "name": "",
          "type": "address"
        },
        {
          "indexed": false,
          "internalType": "uint256",
          "name": "",
          "type": "uint256"
        }
      ],
      "name": "claimed",
      "type": "event"
    },
    {
      "anonymous": false,
      "inputs": [
        {
          "indexed": false,
          "internalType": "address",
          "name": "",
          "type": "address"
        },
        {
          "indexed": false,
          "internalType": "uint256",
          "name": "",
          "type": "uint256"
        }
      ],
      "name": "profitDeposited",
      "type": "event"
    },
    {
      "inputs": [],
      "name": "apr",
      "outputs": [
        {
          "internalType": "uint256",
          "name": "",
          "type": "uint256"
        }
      ],
      "stateMutability": "view",
      "type": "function"
    },
    {
      "inputs": [],
      "name": "category",
      "outputs": [
        {
          "internalType": "string",
          "name": "",
          "type": "string"
        }
      ],
      "stateMutability": "view",
      "type": "function"
    },
    {
      "inputs": [],
      "name": "claim",
      "outputs": [],
      "stateMutability": "nonpayable",
      "type": "function"
    },
    {
      "inputs": [],
      "name": "depositProfitAmount",
      "outputs": [
        {
          "internalType": "uint256",
          "name": "",
          "type": "uint256"
        }
      ],
      "stateMutability": "view",
      "type": "function"
    },
    {
      "inputs": [],
      "name": "description",
      "outputs": [
        {
          "internalType": "string",
          "name": "",
          "type": "string"
        }
      ],
      "stateMutability": "view",
      "type": "function"
    },
    {
      "inputs": [],
      "name": "endDate",
      "outputs": [
        {
          "internalType": "uint256",
          "name": "",
          "type": "uint256"
        }
      ],
      "stateMutability": "view",
      "type": "function"
    },
    {
      "inputs": [],
      "name": "icon",
      "outputs": [
        {
          "internalType": "string",
          "name": "",
          "type": "string"
        }
      ],
      "stateMutability": "view",
      "type": "function"
    },
    {
      "inputs": [],
      "name": "investToken",
      "outputs": [
        {
          "internalType": "contract IERC20",
          "name": "",
          "type": "address"
        }
      ],
      "stateMutability": "view",
      "type": "function"
    },
    {
      "inputs": [],
      "name": "investTotalAmount",
      "outputs": [
        {
          "internalType": "uint256",
          "name": "",
          "type": "uint256"
        }
      ],
      "stateMutability": "view",
      "type": "function"
    },
    {
      "inputs": [
        {
          "internalType": "uint256",
          "name": "amount",
          "type": "uint256"
        }
      ],
      "name": "makeDepositProfit",
      "outputs": [
        {
          "internalType": "bool",
          "name": "",
          "type": "bool"
        }
      ],
      "stateMutability": "nonpayable",
      "type": "function"
    },
    {
      "inputs": [
        {
          "internalType": "uint256",
          "name": "investAmount",
          "type": "uint256"
        },
        {
          "internalType": "uint256",
          "name": "shareAmount",
          "type": "uint256"
        }
      ],
      "name": "participate",
      "outputs": [],
      "stateMutability": "nonpayable",
      "type": "function"
    },
    {
      "inputs": [
        {
          "internalType": "address",
          "name": "_userAddr",
          "type": "address"
        }
      ],
      "name": "profitWalletAmountCheck",
      "outputs": [
        {
          "internalType": "bool",
          "name": "",
          "type": "bool"
        },
        {
          "internalType": "uint256",
          "name": "",
          "type": "uint256"
        }
      ],
      "stateMutability": "view",
      "type": "function"
    },
    {
      "inputs": [],
      "name": "projectWebsite",
      "outputs": [
        {
          "internalType": "string",
          "name": "",
          "type": "string"
        }
      ],
      "stateMutability": "view",
      "type": "function"
    },
    {
      "inputs": [
        {
          "internalType": "uint256",
          "name": "shareAmount",
          "type": "uint256"
        },
        {
          "internalType": "uint256",
          "name": "investAmount",
          "type": "uint256"
        }
      ],
      "name": "refund",
      "outputs": [],
      "stateMutability": "nonpayable",
      "type": "function"
    },
    {
      "inputs": [],
      "name": "roi",
      "outputs": [
        {
          "internalType": "uint256",
          "name": "",
          "type": "uint256"
        }
      ],
      "stateMutability": "view",
      "type": "function"
    },
    {
      "inputs": [],
      "name": "sellAmount",
      "outputs": [
        {
          "internalType": "uint256",
          "name": "",
          "type": "uint256"
        }
      ],
      "stateMutability": "view",
      "type": "function"
    },
    {
      "inputs": [],
      "name": "shareToken",
      "outputs": [
        {
          "internalType": "contract IERC20",
          "name": "",
          "type": "address"
        }
      ],
      "stateMutability": "view",
      "type": "function"
    },
    {
      "inputs": [],
      "name": "shareTokenPrice",
      "outputs": [
        {
          "internalType": "uint256",
          "name": "",
          "type": "uint256"
        }
      ],
      "stateMutability": "view",
      "type": "function"
    },
    {
      "inputs": [],
      "name": "startDate",
      "outputs": [
        {
          "internalType": "uint256",
          "name": "",
          "type": "uint256"
        }
      ],
      "stateMutability": "view",
      "type": "function"
    },
    {
      "inputs": [],
      "name": "symbolImage",
      "outputs": [
        {
          "internalType": "string",
          "name": "",
          "type": "string"
        }
      ],
      "stateMutability": "view",
      "type": "function"
    },
    {
      "inputs": [],
      "name": "title",
      "outputs": [
        {
          "internalType": "string",
          "name": "",
          "type": "string"
        }
      ],
      "stateMutability": "view",
      "type": "function"
    }
  ],
  "bytecode": "0x60806040526000600f553480156200001657600080fd5b50604051620016e4380380620016e48339810160408190526200003991620004c3565b836000815181106200004f576200004f620006f6565b6020026020010151600290805190602001906200006e92919062000318565b5083600181518110620000855762000085620006f6565b602002602001015160039080519060200190620000a492919062000318565b5083600281518110620000bb57620000bb620006f6565b602002602001015160049080519060200190620000da92919062000318565b5083600381518110620000f157620000f1620006f6565b6020026020010151600590805190602001906200011092919062000318565b5083600481518110620001275762000127620006f6565b6020026020010151600690805190602001906200014692919062000318565b50836005815181106200015d576200015d620006f6565b6020026020010151600790805190602001906200017c92919062000318565b5082600081518110620001935762000193620006f6565b602002602001015160088190555082600181518110620001b757620001b7620006f6565b602002602001015160098190555082600281518110620001db57620001db620006f6565b6020026020010151600a8190555082600381518110620001ff57620001ff620006f6565b6020026020010151600b8190555082600481518110620002235762000223620006f6565b6020026020010151600c8190555080600e81905550816000815181106200024e576200024e620006f6565b60200260200101516000806101000a8154816001600160a01b0302191690836001600160a01b0316021790555081600181518110620002915762000291620006f6565b6020908102919091010151600180546001600160a01b0319166001600160a01b039283161790556000805460408051634b88b8ad60e11b815290519190931692639711715a92600480830193919282900301818387803b158015620002f557600080fd5b505af11580156200030a573d6000803e3d6000fd5b505050505050505062000722565b8280546200032690620006b9565b90600052602060002090601f0160209004810192826200034a576000855562000395565b82601f106200036557805160ff191683800117855562000395565b8280016001018555821562000395579182015b828111156200039557825182559160200191906001019062000378565b50620003a3929150620003a7565b5090565b5b80821115620003a35760008155600101620003a8565b600082601f830112620003d057600080fd5b81516020620003e9620003e38362000693565b62000660565b80838252828201915082860187848660051b89010111156200040a57600080fd5b6000805b86811015620004415782516001600160a01b03811681146200042e578283fd5b855293850193918501916001016200040e565b509198975050505050505050565b600082601f8301126200046157600080fd5b8151602062000474620003e38362000693565b80838252828201915082860187848660051b89010111156200049557600080fd5b60005b85811015620004b65781518452928401929084019060010162000498565b5090979650505050505050565b60008060008060808587031215620004da57600080fd5b84516001600160401b0380821115620004f257600080fd5b818701915087601f8301126200050757600080fd5b815162000518620003e38262000693565b80828252602082019150602085018b60208560051b88010111156200053c57600080fd5b60005b84811015620005ff578151868111156200055857600080fd5b8701603f81018e136200056a57600080fd5b6020810151878111156200058257620005826200070c565b62000597601f8201601f191660200162000660565b8181528f6040838501011115620005ad57600080fd5b60005b82811015620005d3576040818501015160208284010152602081019050620005b0565b82811115620005e6576000602084840101525b508652505060209384019391909101906001016200053f565b505060208a015190985093505050808211156200061b57600080fd5b62000629888389016200044f565b945060408701519150808211156200064057600080fd5b506200064f87828801620003be565b606096909601519497939650505050565b604051601f8201601f191681016001600160401b03811182821017156200068b576200068b6200070c565b604052919050565b60006001600160401b03821115620006af57620006af6200070c565b5060051b60200190565b600181811c90821680620006ce57607f821691505b60208210811415620006f057634e487b7160e01b600052602260045260246000fd5b50919050565b634e487b7160e01b600052603260045260246000fd5b634e487b7160e01b600052604160045260246000fd5b610fb280620007326000396000f3fe608060405234801561001057600080fd5b50600436106101375760003560e01c806356975b84116100b8578063badf822b1161007c578063badf822b1461023b578063c24a0f8b1461024e578063c557b98514610257578063d71454451461025f578063e3b4c0d114610268578063ef430aa61461028b57600080fd5b806356975b84146101e357806357ded9c9146101ec5780635af36e3e146101f55780636c9fa59e146102085780637284e4161461023357600080fd5b80634a4ebc3d116100ff5780634a4ebc3d146101985780634a79d50c146101a05780634afdd0e7146101a85780634e71d92d146101b15780634e772479146101b957600080fd5b806303e5979d1461013c5780630b97bc861461015a578063129874aa1461017157806327d0d52d146101865780633f407b841461018f575b600080fd5b610144610293565b6040516101519190610e66565b60405180910390f35b610163600b5481565b604051908152602001610151565b61018461017f366004610e44565b610321565b005b61016360085481565b610163600e5481565b610144610579565b610144610586565b61016360095481565b610184610593565b6101cc6101c7366004610dc0565b61076c565b604080519215158352602083019190915201610151565b610163600d5481565b610163600a5481565b610184610203366004610e44565b6109e8565b60005461021b906001600160a01b031681565b6040516001600160a01b039091168152602001610151565b610144610b94565b60015461021b906001600160a01b031681565b610163600c5481565b610144610ba1565b610163600f5481565b61027b610276366004610e12565b610bae565b6040519015158152602001610151565b610144610db3565b600580546102a090610f2b565b80601f01602080910402602001604051908101604052809291908181526020018280546102cc90610f2b565b80156103195780601f106102ee57610100808354040283529160200191610319565b820191906000526020600020905b8154815290600101906020018083116102fc57829003601f168201915b505050505081565b6000821161036d5760405162461bcd60e51b815260206004820152601460248201527353656e7420616d6f756e74206973207a65726f2160601b60448201526064015b60405180910390fd5b610379426103e8610ef5565b600b54106103c25760405162461bcd60e51b81526020600482015260166024820152754974206861736e27742073746172746564207965742160501b6044820152606401610364565b6103ce426103e8610ef5565b600c541161040c5760405162461bcd60e51b815260206004820152600b60248201526a54696d652069732075702160a81b6044820152606401610364565b6001546040516323b872dd60e01b8152336004820152306024820152604481018490526001600160a01b03909116906323b872dd90606401602060405180830381600087803b15801561045e57600080fd5b505af1158015610472573d6000803e3d6000fd5b505050506040513d601f19601f820116820180604052508101906104969190610df0565b5060005460405163a9059cbb60e01b8152336004820152602481018390526001600160a01b039091169063a9059cbb90604401602060405180830381600087803b1580156104e357600080fd5b505af11580156104f7573d6000803e3d6000fd5b505050506040513d601f19601f8201168201806040525081019061051b9190610df0565b5081600f600082825461052e9190610ebb565b909155505060408051308152602081018490529081018290527f64ceaa25376a606505a20223863437c73f24c3d44eca9912c49197b4aea536a4906060015b60405180910390a15050565b600780546102a090610f2b565b600280546102a090610f2b565b60008061059f3361076c565b91509150811580156105b15750600081115b6105ec5760405162461bcd60e51b815260206004820152600c60248201526b436c61696d204572726f722160a01b6044820152606401610364565b60015460405163a9059cbb60e01b8152336004820152602481018390526001600160a01b039091169063a9059cbb90604401602060405180830381600087803b15801561063857600080fd5b505af115801561064c573d6000803e3d6000fd5b505050506040513d601f19601f820116820180604052508101906106709190610df0565b5080600d60008282546106839190610f14565b909155505033600090815260106020908152604080832083548251632a1cd6c360e11b81529251600195929492936001600160a01b0390921692635439ad869260048082019391829003018186803b1580156106de57600080fd5b505afa1580156106f2573d6000803e3d6000fd5b505050506040513d601f19601f820116820180604052508101906107169190610e2b565b81526020808201929092526040908101600020805460ff19169315159390931790925581513081529081018390527f4dd6c8de072db5939c4dc757de920d64bcbef063a41150ae51deb4f125032ddf910161056d565b600080600060106000856001600160a01b03166001600160a01b0316815260200190815260200160002060008060009054906101000a90046001600160a01b03166001600160a01b0316635439ad866040518163ffffffff1660e01b815260040160206040518083038186803b1580156107e557600080fd5b505afa1580156107f9573d6000803e3d6000fd5b505050506040513d601f19601f8201168201806040525081019061081d9190610e2b565b8152602081019190915260400160009081205460ff169150816109de576000805460408051632a1cd6c360e11b815290516001600160a01b0390921691634ee2cd7e9189918491635439ad86916004808301926020929190829003018186803b15801561088957600080fd5b505afa15801561089d573d6000803e3d6000fd5b505050506040513d601f19601f820116820180604052508101906108c19190610e2b565b6040516001600160e01b031960e085901b1681526001600160a01b039092166004830152602482015260440160206040518083038186803b15801561090557600080fd5b505afa158015610919573d6000803e3d6000fd5b505050506040513d601f19601f8201168201806040525081019061093d9190610e2b565b905060008054906101000a90046001600160a01b03166001600160a01b03166318160ddd6040518163ffffffff1660e01b815260040160206040518083038186803b15801561098b57600080fd5b505afa15801561099f573d6000803e3d6000fd5b505050506040513d601f19601f820116820180604052508101906109c39190610e2b565b600d546109d09083610ef5565b6109da9190610ed3565b9150505b9094909350915050565b60008211610a2f5760405162461bcd60e51b815260206004820152601460248201527353656e7420616d6f756e74206973207a65726f2160601b6044820152606401610364565b6000546040516323b872dd60e01b8152336004820152306024820152604481018490526001600160a01b03909116906323b872dd90606401602060405180830381600087803b158015610a8157600080fd5b505af1158015610a95573d6000803e3d6000fd5b505050506040513d601f19601f82011682018060405250810190610ab99190610df0565b5060015460405163a9059cbb60e01b8152336004820152602481018390526001600160a01b039091169063a9059cbb90604401602060405180830381600087803b158015610b0657600080fd5b505af1158015610b1a573d6000803e3d6000fd5b505050506040513d601f19601f82011682018060405250810190610b3e9190610df0565b5080600f6000828254610b519190610f14565b909155505060408051308152602081018390529081018390527f73f04af9dcc582a923ec15d3eea990fe34adabfff2879e28d44572e01a54abb69060600161056d565b600380546102a090610f2b565b600680546102a090610f2b565b6000808211610bf65760405162461bcd60e51b815260206004820152601460248201527373656e7420616d6f756e74206973207a65726f2160601b6044820152606401610364565b600d5415610c8857600154600d5460405163a9059cbb60e01b815233600482015260248101919091526001600160a01b039091169063a9059cbb90604401602060405180830381600087803b158015610c4e57600080fd5b505af1158015610c62573d6000803e3d6000fd5b505050506040513d601f19601f82011682018060405250810190610c869190610df0565b505b6001546040516323b872dd60e01b8152336004820152306024820152604481018490526001600160a01b03909116906323b872dd90606401602060405180830381600087803b158015610cda57600080fd5b505af1158015610cee573d6000803e3d6000fd5b505050506040513d601f19601f82011682018060405250810190610d129190610df0565b50600d8290556000805460408051634b88b8ad60e11b815290516001600160a01b0390921692639711715a9260048084019382900301818387803b158015610d5957600080fd5b505af1158015610d6d573d6000803e3d6000fd5b505060408051308152602081018690527f4b7f2938295099ab0b6b02f81858c03c95a65051e2e030f8dc59ccbb40f50a0d935001905060405180910390a1506001919050565b600480546102a090610f2b565b600060208284031215610dd257600080fd5b81356001600160a01b0381168114610de957600080fd5b9392505050565b600060208284031215610e0257600080fd5b81518015158114610de957600080fd5b600060208284031215610e2457600080fd5b5035919050565b600060208284031215610e3d57600080fd5b5051919050565b60008060408385031215610e5757600080fd5b50508035926020909101359150565b600060208083528351808285015260005b81811015610e9357858101830151858201604001528201610e77565b81811115610ea5576000604083870101525b50601f01601f1916929092016040019392505050565b60008219821115610ece57610ece610f66565b500190565b600082610ef057634e487b7160e01b600052601260045260246000fd5b500490565b6000816000190483118215151615610f0f57610f0f610f66565b500290565b600082821015610f2657610f26610f66565b500390565b600181811c90821680610f3f57607f821691505b60208210811415610f6057634e487b7160e01b600052602260045260246000fd5b50919050565b634e487b7160e01b600052601160045260246000fdfea2646970667358221220144b4e98098fcafaf9426324eef0df2c5f95f6999b84b6a953ef1b276399f51464736f6c63430008070033",
  "linkReferences": {},
  "deployedLinkReferences": {}
}