{
  "_format": "hh-sol-artifact-1",
  "contractName": "YUSD",
  "sourceName": "contracts/YUSD.sol",
  "abi": [
    {
      "inputs": [
        {
          "internalType": "address",
          "name": "_WETH",
          "type": "address"
        },
        {
          "internalType": "address",
          "name": "_YOC",
          "type": "address"
        },
        {
          "internalType": "address",
          "name": "_YocSwapRouter",
          "type": "address"
        },
        {
          "internalType": "address",
          "name": "_admin",
          "type": "address"
        },
        {
          "internalType": "address",
          "name": "_aggregator",
          "type": "address"
        }
      ],
      "stateMutability": "nonpayable",
      "type": "constructor"
    },
    {
      "anonymous": false,
      "inputs": [
        {
          "indexed": true,
          "internalType": "address",
          "name": "tokenOwner",
          "type": "address"
        },
        {
          "indexed": true,
          "internalType": "address",
          "name": "spender",
          "type": "address"
        },
        {
          "indexed": false,
          "internalType": "uint256",
          "name": "tokens",
          "type": "uint256"
        }
      ],
      "name": "Approval",
      "type": "event"
    },
    {
      "anonymous": false,
      "inputs": [
        {
          "indexed": false,
          "internalType": "address",
          "name": "",
          "type": "address"
        },
        {
          "indexed": false,
          "internalType": "uint256",
          "name": "",
          "type": "uint256"
        }
      ],
      "name": "Burn",
      "type": "event"
    },
    {
      "anonymous": false,
      "inputs": [
        {
          "indexed": false,
          "internalType": "uint256",
          "name": "transferETHAmount",
          "type": "uint256"
        },
        {
          "indexed": false,
          "internalType": "uint256",
          "name": "transferYOCAmount",
          "type": "uint256"
        },
        {
          "indexed": false,
          "internalType": "bool",
          "name": "",
          "type": "bool"
        }
      ],
      "name": "Function1",
      "type": "event"
    },
    {
      "anonymous": false,
      "inputs": [
        {
          "indexed": false,
          "internalType": "uint256",
          "name": "swapETHAmount",
          "type": "uint256"
        },
        {
          "indexed": false,
          "internalType": "uint256",
          "name": "swapYOCAmount",
          "type": "uint256"
        }
      ],
      "name": "Function2",
      "type": "event"
    },
    {
      "anonymous": false,
      "inputs": [
        {
          "indexed": false,
          "internalType": "address",
          "name": "",
          "type": "address"
        },
        {
          "indexed": false,
          "internalType": "uint256",
          "name": "",
          "type": "uint256"
        }
      ],
      "name": "Mint",
      "type": "event"
    },
    {
      "anonymous": false,
      "inputs": [
        {
          "indexed": true,
          "internalType": "address",
          "name": "previousOwner",
          "type": "address"
        },
        {
          "indexed": true,
          "internalType": "address",
          "name": "newOwner",
          "type": "address"
        }
      ],
      "name": "OwnershipTransferred",
      "type": "event"
    },
    {
      "anonymous": false,
      "inputs": [
        {
          "indexed": true,
          "internalType": "address",
          "name": "from",
          "type": "address"
        },
        {
          "indexed": true,
          "internalType": "address",
          "name": "to",
          "type": "address"
        },
        {
          "indexed": false,
          "internalType": "uint256",
          "name": "tokens",
          "type": "uint256"
        }
      ],
      "name": "Transfer",
      "type": "event"
    },
    {
      "inputs": [],
      "name": "WETH",
      "outputs": [
        {
          "internalType": "address",
          "name": "",
          "type": "address"
        }
      ],
      "stateMutability": "view",
      "type": "function"
    },
    {
      "inputs": [],
      "name": "YOC",
      "outputs": [
        {
          "internalType": "address",
          "name": "",
          "type": "address"
        }
      ],
      "stateMutability": "view",
      "type": "function"
    },
    {
      "inputs": [],
      "name": "_burnSupply",
      "outputs": [
        {
          "internalType": "uint256",
          "name": "",
          "type": "uint256"
        }
      ],
      "stateMutability": "view",
      "type": "function"
    },
    {
      "inputs": [],
      "name": "_totalSupply",
      "outputs": [
        {
          "internalType": "uint256",
          "name": "",
          "type": "uint256"
        }
      ],
      "stateMutability": "view",
      "type": "function"
    },
    {
      "inputs": [],
      "name": "admin",
      "outputs": [
        {
          "internalType": "address",
          "name": "",
          "type": "address"
        }
      ],
      "stateMutability": "view",
      "type": "function"
    },
    {
      "inputs": [
        {
          "internalType": "address",
          "name": "owner",
          "type": "address"
        },
        {
          "internalType": "address",
          "name": "spender",
          "type": "address"
        }
      ],
      "name": "allowance",
      "outputs": [
        {
          "internalType": "uint256",
          "name": "",
          "type": "uint256"
        }
      ],
      "stateMutability": "view",
      "type": "function"
    },
    {
      "inputs": [
        {
          "internalType": "address",
          "name": "spender",
          "type": "address"
        },
        {
          "internalType": "uint256",
          "name": "amount",
          "type": "uint256"
        }
      ],
      "name": "approve",
      "outputs": [
        {
          "internalType": "bool",
          "name": "",
          "type": "bool"
        }
      ],
      "stateMutability": "nonpayable",
      "type": "function"
    },
    {
      "inputs": [
        {
          "internalType": "address",
          "name": "account",
          "type": "address"
        }
      ],
      "name": "balanceOf",
      "outputs": [
        {
          "internalType": "uint256",
          "name": "",
          "type": "uint256"
        }
      ],
      "stateMutability": "view",
      "type": "function"
    },
    {
      "inputs": [
        {
          "internalType": "uint256",
          "name": "_amount",
          "type": "uint256"
        }
      ],
      "name": "burn",
      "outputs": [
        {
          "internalType": "bool",
          "name": "success",
          "type": "bool"
        }
      ],
      "stateMutability": "nonpayable",
      "type": "function"
    },
    {
      "inputs": [
        {
          "internalType": "string",
          "name": "a",
          "type": "string"
        },
        {
          "internalType": "string",
          "name": "b",
          "type": "string"
        }
      ],
      "name": "concatStrings",
      "outputs": [
        {
          "internalType": "string",
          "name": "",
          "type": "string"
        }
      ],
      "stateMutability": "pure",
      "type": "function"
    },
    {
      "inputs": [],
      "name": "decimals",
      "outputs": [
        {
          "internalType": "uint8",
          "name": "",
          "type": "uint8"
        }
      ],
      "stateMutability": "view",
      "type": "function"
    },
    {
      "inputs": [],
      "name": "function1",
      "outputs": [
        {
          "internalType": "bool",
          "name": "success",
          "type": "bool"
        }
      ],
      "stateMutability": "nonpayable",
      "type": "function"
    },
    {
      "inputs": [],
      "name": "function2",
      "outputs": [
        {
          "internalType": "bool",
          "name": "success",
          "type": "bool"
        }
      ],
      "stateMutability": "nonpayable",
      "type": "function"
    },
    {
      "inputs": [
        {
          "internalType": "uint256",
          "name": "_amount",
          "type": "uint256"
        }
      ],
      "name": "getETHAmountForMint",
      "outputs": [
        {
          "internalType": "uint256",
          "name": "",
          "type": "uint256"
        }
      ],
      "stateMutability": "view",
      "type": "function"
    },
    {
      "inputs": [],
      "name": "getETHPrice",
      "outputs": [
        {
          "internalType": "uint256",
          "name": "",
          "type": "uint256"
        }
      ],
      "stateMutability": "view",
      "type": "function"
    },
    {
      "inputs": [],
      "name": "lastMintTime",
      "outputs": [
        {
          "internalType": "uint256",
          "name": "",
          "type": "uint256"
        }
      ],
      "stateMutability": "view",
      "type": "function"
    },
    {
      "inputs": [
        {
          "internalType": "uint256",
          "name": "_amount",
          "type": "uint256"
        }
      ],
      "name": "mint",
      "outputs": [
        {
          "internalType": "bool",
          "name": "success",
          "type": "bool"
        }
      ],
      "stateMutability": "payable",
      "type": "function"
    },
    {
      "inputs": [],
      "name": "name",
      "outputs": [
        {
          "internalType": "string",
          "name": "",
          "type": "string"
        }
      ],
      "stateMutability": "view",
      "type": "function"
    },
    {
      "inputs": [],
      "name": "owner",
      "outputs": [
        {
          "internalType": "address",
          "name": "",
          "type": "address"
        }
      ],
      "stateMutability": "view",
      "type": "function"
    },
    {
      "inputs": [],
      "name": "price",
      "outputs": [
        {
          "internalType": "uint256",
          "name": "",
          "type": "uint256"
        }
      ],
      "stateMutability": "view",
      "type": "function"
    },
    {
      "inputs": [],
      "name": "rate",
      "outputs": [
        {
          "internalType": "uint256",
          "name": "",
          "type": "uint256"
        }
      ],
      "stateMutability": "view",
      "type": "function"
    },
    {
      "inputs": [],
      "name": "renounceOwnership",
      "outputs": [],
      "stateMutability": "nonpayable",
      "type": "function"
    },
    {
      "inputs": [
        {
          "internalType": "uint256",
          "name": "a",
          "type": "uint256"
        },
        {
          "internalType": "uint256",
          "name": "b",
          "type": "uint256"
        }
      ],
      "name": "safeAdd",
      "outputs": [
        {
          "internalType": "uint256",
          "name": "c",
          "type": "uint256"
        }
      ],
      "stateMutability": "pure",
      "type": "function"
    },
    {
      "inputs": [
        {
          "internalType": "uint256",
          "name": "a",
          "type": "uint256"
        },
        {
          "internalType": "uint256",
          "name": "b",
          "type": "uint256"
        }
      ],
      "name": "safeDiv",
      "outputs": [
        {
          "internalType": "uint256",
          "name": "c",
          "type": "uint256"
        }
      ],
      "stateMutability": "pure",
      "type": "function"
    },
    {
      "inputs": [
        {
          "internalType": "uint256",
          "name": "a",
          "type": "uint256"
        },
        {
          "internalType": "uint256",
          "name": "b",
          "type": "uint256"
        }
      ],
      "name": "safeMul",
      "outputs": [
        {
          "internalType": "uint256",
          "name": "c",
          "type": "uint256"
        }
      ],
      "stateMutability": "pure",
      "type": "function"
    },
    {
      "inputs": [
        {
          "internalType": "uint256",
          "name": "a",
          "type": "uint256"
        },
        {
          "internalType": "uint256",
          "name": "b",
          "type": "uint256"
        }
      ],
      "name": "safeSub",
      "outputs": [
        {
          "internalType": "uint256",
          "name": "c",
          "type": "uint256"
        }
      ],
      "stateMutability": "pure",
      "type": "function"
    },
    {
      "inputs": [
        {
          "internalType": "address",
          "name": "_admin",
          "type": "address"
        }
      ],
      "name": "setAdmin",
      "outputs": [],
      "stateMutability": "nonpayable",
      "type": "function"
    },
    {
      "inputs": [],
      "name": "symbol",
      "outputs": [
        {
          "internalType": "string",
          "name": "",
          "type": "string"
        }
      ],
      "stateMutability": "view",
      "type": "function"
    },
    {
      "inputs": [],
      "name": "totalSupply",
      "outputs": [
        {
          "internalType": "uint256",
          "name": "",
          "type": "uint256"
        }
      ],
      "stateMutability": "view",
      "type": "function"
    },
    {
      "inputs": [
        {
          "internalType": "address",
          "name": "recipient",
          "type": "address"
        },
        {
          "internalType": "uint256",
          "name": "amount",
          "type": "uint256"
        }
      ],
      "name": "transfer",
      "outputs": [
        {
          "internalType": "bool",
          "name": "success",
          "type": "bool"
        }
      ],
      "stateMutability": "nonpayable",
      "type": "function"
    },
    {
      "inputs": [
        {
          "internalType": "address",
          "name": "sender",
          "type": "address"
        },
        {
          "internalType": "address",
          "name": "recipient",
          "type": "address"
        },
        {
          "internalType": "uint256",
          "name": "amount",
          "type": "uint256"
        }
      ],
      "name": "transferFrom",
      "outputs": [
        {
          "internalType": "bool",
          "name": "success",
          "type": "bool"
        }
      ],
      "stateMutability": "nonpayable",
      "type": "function"
    },
    {
      "inputs": [
        {
          "internalType": "address",
          "name": "newOwner",
          "type": "address"
        }
      ],
      "name": "transferOwnership",
      "outputs": [],
      "stateMutability": "nonpayable",
      "type": "function"
    }
  ],
  "bytecode": "0x60c06040526000805460ff60a01b1916600360a11b17815560018190556002553480156200002c57600080fd5b5060405162002e4c38038062002e4c8339810160408190526200004f9162000115565b6200005a33620000a8565b6001600160a01b0394851660805292841660a052600380549185166001600160a01b031992831617905560048054938516938216939093179092556005805491909316911617905562000185565b600080546001600160a01b038381166001600160a01b0319831681178455604051919092169283917f8be0079c531659141344cd1fd0a4f28419497f9722a3daafe3b4186f6b6457e09190a35050565b80516001600160a01b03811681146200011057600080fd5b919050565b600080600080600060a086880312156200012e57600080fd5b6200013986620000f8565b94506200014960208701620000f8565b93506200015960408701620000f8565b92506200016960608701620000f8565b91506200017960808701620000f8565b90509295509295909350565b60805160a051612c006200024c600039600081816105fd015281816109be01528181610a5901528181610c2901528181610d2d01528181610f8f01528181611022015281816112ed015281816113bf0152818161158a01528181611625015281816117fa0152818161199901528181611b9901528181611c2c0152611eb60152600081816104cd01528181610aad01528181610bd5015281816110760152818161129901528181611679015281816117a601528181611c800152611e620152612c006000f3fe6080604052600436106101e35760003560e01c806395d89b4111610102578063b5931f7c11610095578063f2fde38b11610064578063f2fde38b14610595578063f48650a9146105b5578063f851a440146105cb578063fd01ea9f146105eb57600080fd5b8063b5931f7c146104ef578063d05c78da1461050f578063dd62ed3e1461052f578063e6cb90131461057557600080fd5b8063a293d1e8116100d1578063a293d1e814610466578063a607a8d914610486578063a9059cbb1461049b578063ad5c4648146104bb57600080fd5b806395d89b41146101e85780639d46352014610428578063a035b1fe1461043e578063a0712d681461045357600080fd5b80633ca3addd1161017a57806370a082311161014957806370a0823114610396578063715018a6146103cc57806378728c73146103e15780638da5cb5b146103f657600080fd5b80633ca3addd1461031e5780633eaaf86b1461033e57806342966c6814610354578063704b6c021461037457600080fd5b806323b872dd116101b657806323b872dd146102a157806329a71964146102c15780632c4e722e146102d6578063313ce567146102eb57600080fd5b806306fdde03146101e8578063095ea7b31461022e57806312600aa31461025e57806318160ddd1461027e575b600080fd5b3480156101f457600080fd5b5061021860405180604001604052806004815260200163165554d160e21b81525081565b604051610225919061250e565b60405180910390f35b34801561023a57600080fd5b5061024e61024936600461257f565b61061f565b6040519015158152602001610225565b34801561026a57600080fd5b50610218610279366004612660565b61070a565b34801561028a57600080fd5b50610293610846565b604051908152602001610225565b3480156102ad57600080fd5b5061024e6102bc3660046126c4565b61085d565b3480156102cd57600080fd5b5061024e610949565b3480156102e257600080fd5b50610293610f6d565b3480156102f757600080fd5b5060005461030c90600160a01b900460ff1681565b60405160ff9091168152602001610225565b34801561032a57600080fd5b50610293610339366004612700565b61117c565b34801561034a57600080fd5b5061029360015481565b34801561036057600080fd5b5061024e61036f366004612700565b6111af565b34801561038057600080fd5b5061039461038f366004612719565b6114d7565b005b3480156103a257600080fd5b506102936103b1366004612719565b6001600160a01b031660009081526007602052604090205490565b3480156103d857600080fd5b50610394611501565b3480156103ed57600080fd5b5061024e611515565b34801561040257600080fd5b506000546001600160a01b03165b6040516001600160a01b039091168152602001610225565b34801561043457600080fd5b5061029360065481565b34801561044a57600080fd5b50610293611b77565b61024e610461366004612700565b611dc1565b34801561047257600080fd5b50610293610481366004612734565b611fa9565b34801561049257600080fd5b50610293611fc9565b3480156104a757600080fd5b5061024e6104b636600461257f565b61204f565b3480156104c757600080fd5b506104107f000000000000000000000000000000000000000000000000000000000000000081565b3480156104fb57600080fd5b5061029361050a366004612734565b612138565b34801561051b57600080fd5b5061029361052a366004612734565b612150565b34801561053b57600080fd5b5061029361054a366004612756565b6001600160a01b03918216600090815260086020908152604080832093909416825291909152205490565b34801561058157600080fd5b50610293610590366004612734565b61217c565b3480156105a157600080fd5b506103946105b0366004612719565b612197565b3480156105c157600080fd5b5061029360025481565b3480156105d757600080fd5b50600354610410906001600160a01b031681565b3480156105f757600080fd5b506104107f000000000000000000000000000000000000000000000000000000000000000081565b60006001600160a01b0383166106875760405162461bcd60e51b815260206004820152602260248201527f45524332303a20617070726f766520746f20746865207a65726f206164647265604482015261737360f01b60648201526084015b60405180910390fd5b3360009081526008602090815260408083206001600160a01b0387168452909152812080548492906106ba90849061279f565b90915550506040518281526001600160a01b0384169033907f8c5be1e5ebec7d5bd14f71427d1e84f3dd0314c0f7b2291e5b200ac8c7c3b925906020015b60405180910390a35060015b92915050565b8051825160609184918491600091610722919061279f565b67ffffffffffffffff81111561073a5761073a6125a9565b6040519080825280601f01601f191660200182016040528015610764576020820181803683370190505b50905060005b83518110156107cb57838181518110610785576107856127b7565b602001015160f81c60f81b8282815181106107a2576107a26127b7565b60200101906001600160f81b031916908160001a905350806107c3816127cd565b91505061076a565b5060005b825181101561083c578281815181106107ea576107ea6127b7565b602001015160f81c60f81b82828651610803919061279f565b81518110610813576108136127b7565b60200101906001600160f81b031916908160001a90535080610834816127cd565b9150506107cf565b5095945050505050565b600060025460015461085891906127e8565b905090565b6001600160a01b038316600090815260086020908152604080832033845290915281205461088b9083611fa9565b6001600160a01b0385166000818152600860209081526040808320338452825280832094909455918152600790915220546108c69083611fa9565b6001600160a01b0380861660009081526007602052604080822093909355908516815220546108f5908361217c565b6001600160a01b038085166000818152600760205260409081902093909355915190861690600080516020612bab833981519152906109379086815260200190565b60405180910390a35060019392505050565b6003546000906001600160a01b031633146109a65760405162461bcd60e51b815260206004820152601c60248201527f596f7520617265206e6f7420616e2061646d696e6973747261746f7200000000604482015260640161067e565b6040516370a0823160e01b81523060048201526000907f00000000000000000000000000000000000000000000000000000000000000006001600160a01b0316906370a0823190602401602060405180830381865afa158015610a0d573d6000803e3d6000fd5b505050506040513d601f19601f82011682018060405250810190610a3191906127ff565b60408051600280825260608201835292935060009290916020830190803683370190505090507f000000000000000000000000000000000000000000000000000000000000000081600081518110610a8b57610a8b6127b7565b60200260200101906001600160a01b031690816001600160a01b0316815250507f000000000000000000000000000000000000000000000000000000000000000081600181518110610adf57610adf6127b7565b6001600160a01b03928316602091820292909201015260055460405163d06ca61f60e01b8152600092919091169063d06ca61f90610b23908690869060040161285c565b600060405180830381865afa158015610b40573d6000803e3d6000fd5b505050506040513d6000823e601f3d908101601f19168201604052610b68919081019061287d565b9050600081600181518110610b7f57610b7f6127b7565b602002602001015147610b92919061279f565b905060006064610ba383604b612923565b610bad9190612958565b60408051600280825260608201835292935060009290916020830190803683370190505090507f000000000000000000000000000000000000000000000000000000000000000081600081518110610c0757610c076127b7565b60200260200101906001600160a01b031690816001600160a01b0316815250507f000000000000000000000000000000000000000000000000000000000000000081600181518110610c5b57610c5b6127b7565b6001600160a01b0392831660209182029290920101526005546000911663d06ca61f6064610c8a876019612923565b610c949190612958565b846040518363ffffffff1660e01b8152600401610cb292919061285c565b600060405180830381865afa158015610ccf573d6000803e3d6000fd5b505050506040513d6000823e601f3d908101601f19168201604052610cf7919081019061287d565b9050600081600181518110610d0e57610d0e6127b7565b6020026020010151905087811015610ea5576003546001600160a01b037f000000000000000000000000000000000000000000000000000000000000000081169163a9059cbb9116610d60848c6127e8565b6040516001600160e01b031960e085901b1681526001600160a01b03909216600483015260248201526044016020604051808303816000875af1158015610dab573d6000803e3d6000fd5b505050506040513d601f19601f82011682018060405250810190610dcf919061296c565b504784811115610e63576003546001600160a01b03166108fc610df287846127e8565b6040518115909202916000818181858888f19350505050158015610e1a573d6000803e3d6000fd5b50600080516020612b8b833981519152610e3486836127e8565b610e3e848c6127e8565b60408051928352602083019190915260019082015260600160405180910390a1610e9f565b600080516020612b8b8339815191526000610e7e848c6127e8565b60408051928352602083019190915260009082015260600160405180910390a15b50610f5e565b4784811115610f2d576003546001600160a01b03166108fc610ec787846127e8565b6040518115909202916000818181858888f19350505050158015610eef573d6000803e3d6000fd5b50600080516020612b8b833981519152610f0986836127e8565b604080519182526000602083018190529082015260600160405180910390a1610f5c565b60408051600080825260208201819052818301529051600080516020612b8b8339815191529181900360600190a15b505b60019850505050505050505090565b6040516370a0823160e01b815230600482015260009081906001600160a01b037f000000000000000000000000000000000000000000000000000000000000000016906370a0823190602401602060405180830381865afa158015610fd6573d6000803e3d6000fd5b505050506040513d601f19601f82011682018060405250810190610ffa91906127ff565b60408051600280825260608201835292935060009290916020830190803683370190505090507f000000000000000000000000000000000000000000000000000000000000000081600081518110611054576110546127b7565b60200260200101906001600160a01b031690816001600160a01b0316815250507f0000000000000000000000000000000000000000000000000000000000000000816001815181106110a8576110a86127b7565b6001600160a01b03928316602091820292909201015260055460405163d06ca61f60e01b8152600092919091169063d06ca61f906110ec908690869060040161285c565b600060405180830381865afa158015611109573d6000803e3d6000fd5b505050506040513d6000823e601f3d908101601f19168201604052611131919081019061287d565b9050600081600181518110611148576111486127b7565b60200260200101514761115b919061279f565b905080611169476064612923565b6111739190612958565b94505050505090565b6000611186611fc9565b61119383620f4240612923565b6111a590670de0b6b3a7640000612923565b6107049190612958565b600080546111c890600160a01b900460ff16600a612a72565b6111d29083612923565b3360009081526007602052604090205410156112245760405162461bcd60e51b8152602060048201526011602482015270125b9cdd59999a58da595b9d08165554d1607a1b604482015260640161067e565b600061122e611b77565b9050620f42408111156112415750620f42405b600061124b611fc9565b6112558386612923565b61126790670de0b6b3a7640000612923565b6112719190612958565b60408051600280825260608201835292935060009290916020830190803683370190505090507f0000000000000000000000000000000000000000000000000000000000000000816000815181106112cb576112cb6127b7565b60200260200101906001600160a01b031690816001600160a01b0316815250507f00000000000000000000000000000000000000000000000000000000000000008160018151811061131f5761131f6127b7565b6001600160a01b0392831660209182029290920101526005546000911663d06ca61f606461134e866019612923565b6113589190612958565b846040518363ffffffff1660e01b815260040161137692919061285c565b600060405180830381865afa158015611393573d6000803e3d6000fd5b505050506040513d6000823e601f3d908101601f191682016040526113bb919081019061287d565b90507f00000000000000000000000000000000000000000000000000000000000000006001600160a01b031663a9059cbb3383600181518110611400576114006127b7565b60200260200101516040518363ffffffff1660e01b81526004016114399291906001600160a01b03929092168252602082015260400190565b6020604051808303816000875af1158015611458573d6000803e3d6000fd5b505050506040513d601f19601f8201168201806040525081019061147c919061296c565b50336108fc606461148e86604b612923565b6114989190612958565b6040518115909202916000818181858888f193505050501580156114c0573d6000803e3d6000fd5b506114cb3387612210565b50600195945050505050565b6114df61233e565b600380546001600160a01b0319166001600160a01b0392909216919091179055565b61150961233e565b6115136000612398565b565b6003546000906001600160a01b031633146115725760405162461bcd60e51b815260206004820152601c60248201527f596f7520617265206e6f7420616e2061646d696e6973747261746f7200000000604482015260640161067e565b6040516370a0823160e01b81523060048201526000907f00000000000000000000000000000000000000000000000000000000000000006001600160a01b0316906370a0823190602401602060405180830381865afa1580156115d9573d6000803e3d6000fd5b505050506040513d601f19601f820116820180604052508101906115fd91906127ff565b60408051600280825260608201835292935060009290916020830190803683370190505090507f000000000000000000000000000000000000000000000000000000000000000081600081518110611657576116576127b7565b60200260200101906001600160a01b031690816001600160a01b0316815250507f0000000000000000000000000000000000000000000000000000000000000000816001815181106116ab576116ab6127b7565b6001600160a01b03928316602091820292909201015260055460405163d06ca61f60e01b8152600092919091169063d06ca61f906116ef908690869060040161285c565b600060405180830381865afa15801561170c573d6000803e3d6000fd5b505050506040513d6000823e601f3d908101601f19168201604052611734919081019061287d565b905060008160018151811061174b5761174b6127b7565b60200260200101514761175e919061279f565b90506000606461176f83604b612923565b6117799190612958565b905047811015611914576040805160028082526060820183526000926020830190803683370190505090507f0000000000000000000000000000000000000000000000000000000000000000816000815181106117d8576117d86127b7565b60200260200101906001600160a01b031690816001600160a01b0316815250507f00000000000000000000000000000000000000000000000000000000000000008160018151811061182c5761182c6127b7565b6001600160a01b03928316602091820292909201015260055416637ff36ab561185584476127e8565b6000843061186542610e1061279f565b6040518663ffffffff1660e01b81526004016118849493929190612a81565b60006040518083038185885af11580156118a2573d6000803e3d6000fd5b50505050506040513d6000823e601f3d908101601f191682016040526118cb919081019061287d565b507f76cb73a8ac09ccc5c868c3dc306d038587449b014a459a79be84a3e246e95fef6118f783476127e8565b60408051918252600060208301520160405180910390a150611b6b565b6005546000906001600160a01b0316631f00ca7461193247856127e8565b876040518363ffffffff1660e01b815260040161195092919061285c565b600060405180830381865afa15801561196d573d6000803e3d6000fd5b505050506040513d6000823e601f3d908101601f19168201604052611995919081019061287d565b90507f00000000000000000000000000000000000000000000000000000000000000006001600160a01b031663095ea7b3600560009054906101000a90046001600160a01b0316836000815181106119ef576119ef6127b7565b60200260200101516040518363ffffffff1660e01b8152600401611a289291906001600160a01b03929092168252602082015260400190565b6020604051808303816000875af1158015611a47573d6000803e3d6000fd5b505050506040513d601f19601f82011682018060405250810190611a6b919061296c565b5060055481516001600160a01b03909116906318cbafe5908390600090611a9457611a946127b7565b602090810291909101015160035460009089906001600160a01b0316611abc42610e1061279f565b6040518663ffffffff1660e01b8152600401611adc959493929190612ab6565b6000604051808303816000875af1158015611afb573d6000803e3d6000fd5b505050506040513d6000823e601f3d908101601f19168201604052611b23919081019061287d565b507f76cb73a8ac09ccc5c868c3dc306d038587449b014a459a79be84a3e246e95fef6000611b5147856127e8565b6040805192835260208301919091520160405180910390a1505b60019550505050505090565b6040516370a0823160e01b815230600482015260009081906001600160a01b037f000000000000000000000000000000000000000000000000000000000000000016906370a0823190602401602060405180830381865afa158015611be0573d6000803e3d6000fd5b505050506040513d601f19601f82011682018060405250810190611c0491906127ff565b60408051600280825260608201835292935060009290916020830190803683370190505090507f000000000000000000000000000000000000000000000000000000000000000081600081518110611c5e57611c5e6127b7565b60200260200101906001600160a01b031690816001600160a01b0316815250507f000000000000000000000000000000000000000000000000000000000000000081600181518110611cb257611cb26127b7565b6001600160a01b03928316602091820292909201015260055460405163d06ca61f60e01b8152600092919091169063d06ca61f90611cf6908690869060040161285c565b600060405180830381865afa158015611d13573d6000803e3d6000fd5b505050506040513d6000823e601f3d908101601f19168201604052611d3b919081019061287d565b90506000670de0b6b3a7640000611d50611fc9565b83600181518110611d6357611d636127b7565b602002602001015147611d76919061279f565b611d809190612923565b611d8a9190612958565b600054909150611da590600160a01b900460ff16600a612a72565b611dad610846565b611db79190612958565b6111739082612958565b600080620f4240611dd0611fc9565b611dda9085612958565b611de49190612958565b611df690670de0b6b3a7640000612923565b905080341015611e3f5760405162461bcd60e51b8152602060048201526014602482015273125b9cdd59999a58da595b9d081c185e5b595b9d60621b604482015260640161067e565b6040805160028082526060820183526000926020830190803683370190505090507f000000000000000000000000000000000000000000000000000000000000000081600081518110611e9457611e946127b7565b60200260200101906001600160a01b031690816001600160a01b0316815250507f000000000000000000000000000000000000000000000000000000000000000081600181518110611ee857611ee86127b7565b6001600160a01b03928316602091820292909201015260055416637ff36ab56064611f14346019612923565b611f1e9190612958565b60008430611f2e42610e1061279f565b6040518663ffffffff1660e01b8152600401611f4d9493929190612a81565b60006040518083038185885af1158015611f6b573d6000803e3d6000fd5b50505050506040513d6000823e601f3d908101601f19168201604052611f94919081019061287d565b50611f9f33856123e8565b5060019392505050565b600082821115611fb857600080fd5b611fc282846127e8565b9392505050565b6004805460408051633fabe5a360e21b8152905160009384936001600160a01b03169263feaf968c928183019260a0928290030181865afa158015612012573d6000803e3d6000fd5b505050506040513d601f19601f820116820180604052508101906120369190612b0c565b5050509150506064816120499190612b5c565b91505090565b60006001600160a01b0383166120b35760405162461bcd60e51b815260206004820152602360248201527f45524332303a207472616e7366657220746f20746865207a65726f206164647260448201526265737360e81b606482015260840161067e565b336000908152600760205260409020546120cd9083611fa9565b33600090815260076020526040808220929092556001600160a01b038516815220546120f9908361217c565b6001600160a01b038416600081815260076020526040908190209290925590513390600080516020612bab833981519152906106f89086815260200190565b600080821161214657600080fd5b611fc28284612958565b600061215c8284612923565b90508215806121735750816121718483612958565b145b61070457600080fd5b6000612188828461279f565b90508281101561070457600080fd5b61219f61233e565b6001600160a01b0381166122045760405162461bcd60e51b815260206004820152602660248201527f4f776e61626c653a206e6577206f776e657220697320746865207a65726f206160448201526564647265737360d01b606482015260840161067e565b61220d81612398565b50565b6001600160a01b0382166122665760405162461bcd60e51b815260206004820152601f60248201527f45524332303a206d696e7420746f20746865207a65726f206164647265737300604482015260640161067e565b60005461227e90600160a01b900460ff16600a612a72565b6122889082612923565b60026000828254612299919061279f565b9091555050600080546001600160a01b038416808352600760209081526040938490208054600160a01b90940460ff16600a0a860290930390925582519081529081018390527fcc16f5dbb4873280815c1ee09dbd06736cffcc184412cf7a71a0fdb75d397ca5910160405180910390a16040518181526000906001600160a01b03841690600080516020612bab833981519152906020015b60405180910390a35050565b6000546001600160a01b031633146115135760405162461bcd60e51b815260206004820181905260248201527f4f776e61626c653a2063616c6c6572206973206e6f7420746865206f776e6572604482015260640161067e565b600080546001600160a01b038381166001600160a01b0319831681178455604051919092169283917f8be0079c531659141344cd1fd0a4f28419497f9722a3daafe3b4186f6b6457e09190a35050565b6001600160a01b03821661243e5760405162461bcd60e51b815260206004820152601f60248201527f45524332303a206d696e7420746f20746865207a65726f206164647265737300604482015260640161067e565b60005461245690600160a01b900460ff16600a612a72565b6124609082612923565b60016000828254612471919061279f565b9091555050600080546001600160a01b038416808352600760209081526040938490208054600160a01b90940460ff16600a0a860290930190925582519081529081018390527f0f6798a560793a54c3bcfe86a93cde1e73087d944c0ea20544137d4121396885910160405180910390a16040518181526001600160a01b03831690600090600080516020612bab83398151915290602001612332565b600060208083528351808285015260005b8181101561253b5785810183015185820160400152820161251f565b8181111561254d576000604083870101525b50601f01601f1916929092016040019392505050565b80356001600160a01b038116811461257a57600080fd5b919050565b6000806040838503121561259257600080fd5b61259b83612563565b946020939093013593505050565b634e487b7160e01b600052604160045260246000fd5b604051601f8201601f1916810167ffffffffffffffff811182821017156125e8576125e86125a9565b604052919050565b600082601f83011261260157600080fd5b813567ffffffffffffffff81111561261b5761261b6125a9565b61262e601f8201601f19166020016125bf565b81815284602083860101111561264357600080fd5b816020850160208301376000918101602001919091529392505050565b6000806040838503121561267357600080fd5b823567ffffffffffffffff8082111561268b57600080fd5b612697868387016125f0565b935060208501359150808211156126ad57600080fd5b506126ba858286016125f0565b9150509250929050565b6000806000606084860312156126d957600080fd5b6126e284612563565b92506126f060208501612563565b9150604084013590509250925092565b60006020828403121561271257600080fd5b5035919050565b60006020828403121561272b57600080fd5b611fc282612563565b6000806040838503121561274757600080fd5b50508035926020909101359150565b6000806040838503121561276957600080fd5b61277283612563565b915061278060208401612563565b90509250929050565b634e487b7160e01b600052601160045260246000fd5b600082198211156127b2576127b2612789565b500190565b634e487b7160e01b600052603260045260246000fd5b60006000198214156127e1576127e1612789565b5060010190565b6000828210156127fa576127fa612789565b500390565b60006020828403121561281157600080fd5b5051919050565b600081518084526020808501945080840160005b838110156128515781516001600160a01b03168752958201959082019060010161282c565b509495945050505050565b8281526040602082015260006128756040830184612818565b949350505050565b6000602080838503121561289057600080fd5b825167ffffffffffffffff808211156128a857600080fd5b818501915085601f8301126128bc57600080fd5b8151818111156128ce576128ce6125a9565b8060051b91506128df8483016125bf565b81815291830184019184810190888411156128f957600080fd5b938501935b83851015612917578451825293850193908501906128fe565b98975050505050505050565b600081600019048311821515161561293d5761293d612789565b500290565b634e487b7160e01b600052601260045260246000fd5b60008261296757612967612942565b500490565b60006020828403121561297e57600080fd5b81518015158114611fc257600080fd5b600181815b808511156129c95781600019048211156129af576129af612789565b808516156129bc57918102915b93841c9390800290612993565b509250929050565b6000826129e057506001610704565b816129ed57506000610704565b8160018114612a035760028114612a0d57612a29565b6001915050610704565b60ff841115612a1e57612a1e612789565b50506001821b610704565b5060208310610133831016604e8410600b8410161715612a4c575081810a610704565b612a56838361298e565b8060001904821115612a6a57612a6a612789565b029392505050565b6000611fc260ff8416836129d1565b848152608060208201526000612a9a6080830186612818565b6001600160a01b03949094166040830152506060015292915050565b85815284602082015260a060408201526000612ad560a0830186612818565b6001600160a01b0394909416606083015250608001529392505050565b805169ffffffffffffffffffff8116811461257a57600080fd5b600080600080600060a08688031215612b2457600080fd5b612b2d86612af2565b9450602086015193506040860151925060608601519150612b5060808701612af2565b90509295509295909350565b600082612b6b57612b6b612942565b600160ff1b821460001984141615612b8557612b85612789565b50059056fe34a67787fc475ba005a04954c15089862de2764e26f0139d84edab94c5363820ddf252ad1be2c89b69c2b068fc378daa952ba7f163c4a11628f55a4df523b3efa264697066735822122086ae2664b4b940a130bf431fe6a2690952deecf6d44ee1f5956350e0aaf446ec64736f6c634300080a0033",
  "linkReferences": {},
  "deployedLinkReferences": {}
}