{
  "_format": "hh-sol-artifact-1",
  "contractName": "YOCSwap",
  "sourceName": "contracts/YOCSwap.sol",
  "abi": [
    {
      "inputs": [
        {
          "internalType": "address",
          "name": "routerAddress_",
          "type": "address"
        }
      ],
      "stateMutability": "nonpayable",
      "type": "constructor"
    },
    {
      "anonymous": false,
      "inputs": [
        {
          "indexed": true,
          "internalType": "address",
          "name": "previousOwner",
          "type": "address"
        },
        {
          "indexed": true,
          "internalType": "address",
          "name": "newOwner",
          "type": "address"
        }
      ],
      "name": "OwnershipTransferred",
      "type": "event"
    },
    {
      "inputs": [
        {
          "internalType": "address",
          "name": "tokenA_",
          "type": "address"
        },
        {
          "internalType": "address",
          "name": "tokenB_",
          "type": "address"
        },
        {
          "internalType": "uint256",
          "name": "amountADesired_",
          "type": "uint256"
        },
        {
          "internalType": "uint256",
          "name": "amountBDesired_",
          "type": "uint256"
        },
        {
          "internalType": "address",
          "name": "recipient_",
          "type": "address"
        }
      ],
      "name": "addLiquidity",
      "outputs": [],
      "stateMutability": "nonpayable",
      "type": "function"
    },
    {
      "inputs": [
        {
          "internalType": "address",
          "name": "tokenA_",
          "type": "address"
        },
        {
          "internalType": "uint256",
          "name": "amountADesired_",
          "type": "uint256"
        },
        {
          "internalType": "address",
          "name": "recipient_",
          "type": "address"
        }
      ],
      "name": "addLiquidityETH",
      "outputs": [],
      "stateMutability": "payable",
      "type": "function"
    },
    {
      "inputs": [
        {
          "internalType": "address",
          "name": "tokenA_",
          "type": "address"
        },
        {
          "internalType": "address",
          "name": "tokenB_",
          "type": "address"
        },
        {
          "internalType": "uint256",
          "name": "amountA_",
          "type": "uint256"
        }
      ],
      "name": "expectLiquidityAmount",
      "outputs": [
        {
          "internalType": "uint256",
          "name": "",
          "type": "uint256"
        }
      ],
      "stateMutability": "view",
      "type": "function"
    },
    {
      "inputs": [
        {
          "internalType": "uint256",
          "name": "amountOut_",
          "type": "uint256"
        },
        {
          "internalType": "address[]",
          "name": "path_",
          "type": "address[]"
        }
      ],
      "name": "getExpectAmountIn",
      "outputs": [
        {
          "internalType": "uint256",
          "name": "",
          "type": "uint256"
        }
      ],
      "stateMutability": "view",
      "type": "function"
    },
    {
      "inputs": [
        {
          "internalType": "uint256",
          "name": "amountIn_",
          "type": "uint256"
        },
        {
          "internalType": "address[]",
          "name": "path_",
          "type": "address[]"
        }
      ],
      "name": "getExpectAmountOut",
      "outputs": [
        {
          "internalType": "uint256",
          "name": "",
          "type": "uint256"
        }
      ],
      "stateMutability": "view",
      "type": "function"
    },
    {
      "inputs": [],
      "name": "getWETH",
      "outputs": [
        {
          "internalType": "address",
          "name": "",
          "type": "address"
        }
      ],
      "stateMutability": "view",
      "type": "function"
    },
    {
      "inputs": [],
      "name": "owner",
      "outputs": [
        {
          "internalType": "address",
          "name": "",
          "type": "address"
        }
      ],
      "stateMutability": "view",
      "type": "function"
    },
    {
      "inputs": [],
      "name": "renounceOwnership",
      "outputs": [],
      "stateMutability": "nonpayable",
      "type": "function"
    },
    {
      "inputs": [],
      "name": "routerV2",
      "outputs": [
        {
          "internalType": "contract IUniswapV2Router02",
          "name": "",
          "type": "address"
        }
      ],
      "stateMutability": "view",
      "type": "function"
    },
    {
      "inputs": [
        {
          "internalType": "address",
          "name": "tokenOut_",
          "type": "address"
        }
      ],
      "name": "swapETHToToken",
      "outputs": [],
      "stateMutability": "payable",
      "type": "function"
    },
    {
      "inputs": [
        {
          "internalType": "uint256",
          "name": "amount_",
          "type": "uint256"
        },
        {
          "internalType": "address",
          "name": "tokenAddr_",
          "type": "address"
        }
      ],
      "name": "swapTokenToETH",
      "outputs": [],
      "stateMutability": "nonpayable",
      "type": "function"
    },
    {
      "inputs": [
        {
          "internalType": "uint256",
          "name": "amountIn_",
          "type": "uint256"
        },
        {
          "internalType": "address[]",
          "name": "path_",
          "type": "address[]"
        }
      ],
      "name": "swapTokenToToken",
      "outputs": [],
      "stateMutability": "nonpayable",
      "type": "function"
    },
    {
      "inputs": [
        {
          "internalType": "address",
          "name": "newOwner",
          "type": "address"
        }
      ],
      "name": "transferOwnership",
      "outputs": [],
      "stateMutability": "nonpayable",
      "type": "function"
    },
    {
      "stateMutability": "payable",
      "type": "receive"
    }
  ],
  "bytecode": "0x608060405234801561001057600080fd5b5060405162001be538038062001be5833981016040819052610031916100af565b61003a3361005f565b600280546001600160a01b0319166001600160a01b03929092169190911790556100df565b600080546001600160a01b038381166001600160a01b0319831681178455604051919092169283917f8be0079c531659141344cd1fd0a4f28419497f9722a3daafe3b4186f6b6457e09190a35050565b6000602082840312156100c157600080fd5b81516001600160a01b03811681146100d857600080fd5b9392505050565b611af680620000ef6000396000f3fe6080604052600436106100c65760003560e01c806359b751ba1161007f578063cae5f11e11610059578063cae5f11e14610205578063d673f4981461021a578063f2fde38b1461023a578063f71f868d1461025a57600080fd5b806359b751ba146101bf578063715018a6146101d25780638da5cb5b146101e757600080fd5b806334a7552f146100d257806339ba86d9146101055780634a147718146101275780634b2fc7bb14610147578063502f7446146101675780635042d7dd1461019f57600080fd5b366100cd57005b600080fd5b3480156100de57600080fd5b506100f26100ed3660046114ef565b61026d565b6040519081526020015b60405180910390f35b34801561011157600080fd5b506101256101203660046114ef565b610313565b005b34801561013357600080fd5b50610125610142366004611583565b6104b4565b34801561015357600080fd5b506101256101623660046115b3565b610654565b34801561017357600080fd5b50600254610187906001600160a01b031681565b6040516001600160a01b0390911681526020016100fc565b3480156101ab57600080fd5b506100f26101ba3660046114ef565b61091b565b6101256101cd366004611612565b6109ae565b3480156101de57600080fd5b50610125610c2e565b3480156101f357600080fd5b506000546001600160a01b0316610187565b34801561021157600080fd5b50610187610c42565b34801561022657600080fd5b506100f2610235366004611654565b610cb5565b34801561024657600080fd5b50610125610255366004611695565b610cca565b610125610268366004611695565b610d43565b60025460405163d06ca61f60e01b815260009182916001600160a01b039091169063d06ca61f906102a6908890889088906004016116fb565b600060405180830381865afa1580156102c3573d6000803e3d6000fd5b505050506040513d6000823e601f3d908101601f191682016040526102eb9190810190611734565b905080600181518110610300576103006117f2565b60200260200101519150505b9392505050565b338061033a5760405162461bcd60e51b815260040161033190611808565b60405180910390fd5b60008383828161034c5761034c6117f2565b90506020020160208101906103619190611695565b6001600160a01b0316141580156103a95750600083836001818110610388576103886117f2565b905060200201602081019061039d9190611695565b6001600160a01b031614155b6103c55760405162461bcd60e51b81526004016103319061182e565b600084116103e55760405162461bcd60e51b81526004016103319061185a565b6000838360008181106103fa576103fa6117f2565b905060200201602081019061040f9190611695565b90506104266001600160a01b038216833088610edc565b600254610440906001600160a01b03838116911687610f4d565b600254604051635c11d79560e01b81526001600160a01b0390911690635c11d7959061047b9088906000908990899089904290600401611888565b600060405180830381600087803b15801561049557600080fd5b505af11580156104a9573d6000803e3d6000fd5b505050505050505050565b33806104d25760405162461bcd60e51b815260040161033190611808565b6001600160a01b0382166104f85760405162461bcd60e51b81526004016103319061182e565b600083116105185760405162461bcd60e51b81526004016103319061185a565b8161052e6001600160a01b038216833087610edc565b6040805160028082526060820183526000926020830190803683370190505090508381600081518110610563576105636117f2565b6001600160a01b03928316602091820292909201810191909152600254604080516315ab88c960e31b81529051919093169263ad5c46489260048083019391928290030181865afa1580156105bc573d6000803e3d6000fd5b505050506040513d601f19601f820116820180604052508101906105e091906118c6565b816001815181106105f3576105f36117f2565b6001600160a01b03928316602091820292909201015260025461061b91848116911687610f4d565b60025460405163791ac94760e01b81526001600160a01b039091169063791ac9479061047b90889060009086908990429060040161191c565b336001600160a01b0382166106a75760405162461bcd60e51b8152602060048201526019602482015278726563697069656e74206973207a65726f206164647265737360381b6044820152606401610331565b6001600160a01b0381166106f65760405162461bcd60e51b815260206004820152601660248201527563616c6c6572206973207a65726f206164647265737360501b6044820152606401610331565b6001600160a01b0386161580159061071657506001600160a01b03851615155b6107585760405162461bcd60e51b815260206004820152601360248201527234b73b30b634b232903a37b5b2b7103830b4b960691b6044820152606401610331565b6000841180156107685750600083115b6107b45760405162461bcd60e51b815260206004820152601a60248201527f696e76616c69646520746f6b656e207061697220616d6f756e740000000000006044820152606401610331565b858560006107c3838389611067565b90508086101561080d5760405162461bcd60e51b81526020600482015260156024820152741a5b9cdd59999a58da595b9d081088185b5bdd5b9d605a1b6044820152606401610331565b6108226001600160a01b03841685308a610edc565b6108376001600160a01b038316853089610edc565b600254610851906001600160a01b03858116911689610f4d565b60025461086b906001600160a01b03848116911688610f4d565b60025460405162e8e33760e81b81526001600160a01b038b811660048301528a81166024830152604482018a90526064820189905260006084830181905260a483015287811660c48301524260e48301529091169063e8e3370090610104016060604051808303816000875af11580156108e9573d6000803e3d6000fd5b505050506040513d601f19601f8201168201806040525081019061090d9190611958565b505050505050505050505050565b6002546040516307c0329d60e21b815260009182916001600160a01b0390911690631f00ca7490610954908890889088906004016116fb565b600060405180830381865afa158015610971573d6000803e3d6000fd5b505050506040513d6000823e601f3d908101601f191682016040526109999190810190611734565b905080600081518110610300576103006117f2565b3360006109b9610c42565b9050346001600160a01b038416610a0e5760405162461bcd60e51b8152602060048201526019602482015278726563697069656e74206973207a65726f206164647265737360381b6044820152606401610331565b6001600160a01b038316610a5d5760405162461bcd60e51b815260206004820152601660248201527563616c6c6572206973207a65726f206164647265737360501b6044820152606401610331565b6001600160a01b038616610aa95760405162461bcd60e51b815260206004820152601360248201527234b73b30b634b232903a37b5b2b7103830b4b960691b6044820152606401610331565b600085118015610ab95750600081115b610b055760405162461bcd60e51b815260206004820152601a60248201527f696e76616c69646520746f6b656e207061697220616d6f756e740000000000006044820152606401610331565b856000610b13828589611067565b905080831015610b5d5760405162461bcd60e51b81526020600482015260156024820152741a5b9cdd59999a58da595b9d081088185b5bdd5b9d605a1b6044820152606401610331565b610b726001600160a01b03831686308a610edc565b600254610b8c906001600160a01b03848116911689610f4d565b60025460405163f305d71960e01b81526001600160a01b038a81166004830152602482018a9052600060448301819052606483015288811660848301524260a48301529091169063f305d71990859060c40160606040518083038185885af1158015610bfc573d6000803e3d6000fd5b50505050506040513d601f19601f82011682018060405250810190610c219190611958565b5050505050505050505050565b610c3661126f565b610c4060006112c9565b565b600254604080516315ab88c960e31b815290516000926001600160a01b03169163ad5c46489160048083019260209291908290030181865afa158015610c8c573d6000803e3d6000fd5b505050506040513d601f19601f82011682018060405250810190610cb091906118c6565b905090565b6000610cc2848484611067565b949350505050565b610cd261126f565b6001600160a01b038116610d375760405162461bcd60e51b815260206004820152602660248201527f4f776e61626c653a206e6577206f776e657220697320746865207a65726f206160448201526564647265737360d01b6064820152608401610331565b610d40816112c9565b50565b343380610d625760405162461bcd60e51b815260040161033190611808565b6001600160a01b038316610d885760405162461bcd60e51b81526004016103319061182e565b60008211610da85760405162461bcd60e51b81526004016103319061185a565b6040805160028082526060820183526000926020830190803683375050600254604080516315ab88c960e31b815290519394506001600160a01b039091169263ad5c4648925060048083019260209291908290030181865afa158015610e12573d6000803e3d6000fd5b505050506040513d601f19601f82011682018060405250810190610e3691906118c6565b81600081518110610e4957610e496117f2565b60200260200101906001600160a01b031690816001600160a01b0316815250508381600181518110610e7d57610e7d6117f2565b6001600160a01b03928316602091820292909201015260025460405163b6f9de9560e01b815291169063b6f9de95908590610ec390600090869088904290600401611986565b6000604051808303818588803b15801561049557600080fd5b6040516001600160a01b0380851660248301528316604482015260648101829052610f479085906323b872dd60e01b906084015b60408051601f198184030181529190526020810180516001600160e01b03166001600160e01b031990931692909217909152611319565b50505050565b801580610fc75750604051636eb1769f60e11b81523060048201526001600160a01b03838116602483015284169063dd62ed3e90604401602060405180830381865afa158015610fa1573d6000803e3d6000fd5b505050506040513d601f19601f82011682018060405250810190610fc591906119bb565b155b6110325760405162461bcd60e51b815260206004820152603660248201527f5361666545524332303a20617070726f76652066726f6d206e6f6e2d7a65726f60448201527520746f206e6f6e2d7a65726f20616c6c6f77616e636560501b6064820152608401610331565b6040516001600160a01b03831660248201526044810182905261106290849063095ea7b360e01b90606401610f10565b505050565b600080600260009054906101000a90046001600160a01b03166001600160a01b031663c45a01556040518163ffffffff1660e01b8152600401602060405180830381865afa1580156110bd573d6000803e3d6000fd5b505050506040513d601f19601f820116820180604052508101906110e191906118c6565b60405163e6a4390560e01b81526001600160a01b0387811660048301528681166024830152919091169063e6a4390590604401602060405180830381865afa158015611131573d6000803e3d6000fd5b505050506040513d601f19601f8201168201806040525081019061115591906118c6565b90506001600160a01b03811661116f57600091505061030c565b6040516370a0823160e01b81526001600160a01b038281166004830152600091908716906370a0823190602401602060405180830381865afa1580156111b9573d6000803e3d6000fd5b505050506040513d601f19601f820116820180604052508101906111dd91906119bb565b6040516370a0823160e01b81526001600160a01b0384811660048301529192506000918716906370a0823190602401602060405180830381865afa158015611229573d6000803e3d6000fd5b505050506040513d601f19601f8201168201806040525081019061124d91906119bb565b90508161125a86836119d4565b6112649190611a01565b979650505050505050565b6000546001600160a01b03163314610c405760405162461bcd60e51b815260206004820181905260248201527f4f776e61626c653a2063616c6c6572206973206e6f7420746865206f776e65726044820152606401610331565b600080546001600160a01b038381166001600160a01b0319831681178455604051919092169283917f8be0079c531659141344cd1fd0a4f28419497f9722a3daafe3b4186f6b6457e09190a35050565b600061136e826040518060400160405280602081526020017f5361666545524332303a206c6f772d6c6576656c2063616c6c206661696c6564815250856001600160a01b03166113eb9092919063ffffffff16565b805190915015611062578080602001905181019061138c9190611a23565b6110625760405162461bcd60e51b815260206004820152602a60248201527f5361666545524332303a204552433230206f7065726174696f6e20646964206e6044820152691bdd081cdd58d8d9595960b21b6064820152608401610331565b6060610cc28484600085856001600160a01b0385163b61144d5760405162461bcd60e51b815260206004820152601d60248201527f416464726573733a2063616c6c20746f206e6f6e2d636f6e74726163740000006044820152606401610331565b600080866001600160a01b031685876040516114699190611a71565b60006040518083038185875af1925050503d80600081146114a6576040519150601f19603f3d011682016040523d82523d6000602084013e6114ab565b606091505b5091509150611264828286606083156114c557508161030c565b8251156114d55782518084602001fd5b8160405162461bcd60e51b81526004016103319190611a8d565b60008060006040848603121561150457600080fd5b83359250602084013567ffffffffffffffff8082111561152357600080fd5b818601915086601f83011261153757600080fd5b81358181111561154657600080fd5b8760208260051b850101111561155b57600080fd5b6020830194508093505050509250925092565b6001600160a01b0381168114610d4057600080fd5b6000806040838503121561159657600080fd5b8235915060208301356115a88161156e565b809150509250929050565b600080600080600060a086880312156115cb57600080fd5b85356115d68161156e565b945060208601356115e68161156e565b9350604086013592506060860135915060808601356116048161156e565b809150509295509295909350565b60008060006060848603121561162757600080fd5b83356116328161156e565b92506020840135915060408401356116498161156e565b809150509250925092565b60008060006060848603121561166957600080fd5b83356116748161156e565b925060208401356116848161156e565b929592945050506040919091013590565b6000602082840312156116a757600080fd5b813561030c8161156e565b8183526000602080850194508260005b858110156116f05781356116d58161156e565b6001600160a01b0316875295820195908201906001016116c2565b509495945050505050565b8381526040602082015260006117156040830184866116b2565b95945050505050565b634e487b7160e01b600052604160045260246000fd5b6000602080838503121561174757600080fd5b825167ffffffffffffffff8082111561175f57600080fd5b818501915085601f83011261177357600080fd5b8151818111156117855761178561171e565b8060051b604051601f19603f830116810181811085821117156117aa576117aa61171e565b6040529182528482019250838101850191888311156117c857600080fd5b938501935b828510156117e6578451845293850193928501926117cd565b98975050505050505050565b634e487b7160e01b600052603260045260246000fd5b6020808252600c908201526b7a65726f206164647265737360a01b604082015260600190565b6020808252601290820152717a65726f20746f6b656e206164647265737360701b604082015260600190565b6020808252601490820152731a5b9d985b1a59081d1bdad95b88185b5bdd5b9d60621b604082015260600190565b86815285602082015260a0604082015260006118a860a0830186886116b2565b6001600160a01b039490941660608301525060800152949350505050565b6000602082840312156118d857600080fd5b815161030c8161156e565b600081518084526020808501945080840160005b838110156116f05781516001600160a01b0316875295820195908201906001016118f7565b85815284602082015260a06040820152600061193b60a08301866118e3565b6001600160a01b0394909416606083015250608001529392505050565b60008060006060848603121561196d57600080fd5b8351925060208401519150604084015190509250925092565b84815260806020820152600061199f60808301866118e3565b6001600160a01b03949094166040830152506060015292915050565b6000602082840312156119cd57600080fd5b5051919050565b60008160001904831182151516156119fc57634e487b7160e01b600052601160045260246000fd5b500290565b600082611a1e57634e487b7160e01b600052601260045260246000fd5b500490565b600060208284031215611a3557600080fd5b8151801515811461030c57600080fd5b60005b83811015611a60578181015183820152602001611a48565b83811115610f475750506000910152565b60008251611a83818460208701611a45565b9190910192915050565b6020815260008251806020840152611aac816040850160208701611a45565b601f01601f1916919091016040019291505056fea264697066735822122099e96898d83045f2b8157f1ffac71669fe218821929a8d045a016dcf91dba95864736f6c634300080a0033",
  "linkReferences": {},
  "deployedLinkReferences": {}
}