{
  "_format": "hh-sol-artifact-1",
  "contractName": "YOCSwap",
  "sourceName": "contracts/YOCSwap.sol",
  "abi": [
    {
      "inputs": [
        {
          "internalType": "address",
          "name": "routerAddress_",
          "type": "address"
        }
      ],
      "stateMutability": "nonpayable",
      "type": "constructor"
    },
    {
      "anonymous": false,
      "inputs": [
        {
          "indexed": true,
          "internalType": "address",
          "name": "previousOwner",
          "type": "address"
        },
        {
          "indexed": true,
          "internalType": "address",
          "name": "newOwner",
          "type": "address"
        }
      ],
      "name": "OwnershipTransferred",
      "type": "event"
    },
    {
      "inputs": [
        {
          "internalType": "address",
          "name": "tokenA_",
          "type": "address"
        },
        {
          "internalType": "address",
          "name": "tokenB_",
          "type": "address"
        },
        {
          "internalType": "uint256",
          "name": "amountADesired_",
          "type": "uint256"
        },
        {
          "internalType": "uint256",
          "name": "amountBDesired_",
          "type": "uint256"
        },
        {
          "internalType": "address",
          "name": "recipient_",
          "type": "address"
        }
      ],
      "name": "addLiquidity",
      "outputs": [],
      "stateMutability": "nonpayable",
      "type": "function"
    },
    {
      "inputs": [
        {
          "internalType": "address",
          "name": "tokenA_",
          "type": "address"
        },
        {
          "internalType": "uint256",
          "name": "amountADesired_",
          "type": "uint256"
        },
        {
          "internalType": "address",
          "name": "recipient_",
          "type": "address"
        }
      ],
      "name": "addLiquidityETH",
      "outputs": [],
      "stateMutability": "payable",
      "type": "function"
    },
    {
      "inputs": [
        {
          "internalType": "address",
          "name": "tokenA_",
          "type": "address"
        },
        {
          "internalType": "address",
          "name": "tokenB_",
          "type": "address"
        },
        {
          "internalType": "uint256",
          "name": "amountA_",
          "type": "uint256"
        }
      ],
      "name": "expectLiquidityAmount",
      "outputs": [
        {
          "internalType": "uint256",
          "name": "",
          "type": "uint256"
        }
      ],
      "stateMutability": "view",
      "type": "function"
    },
    {
      "inputs": [
        {
          "internalType": "uint256",
          "name": "amountOut_",
          "type": "uint256"
        },
        {
          "internalType": "address[]",
          "name": "path_",
          "type": "address[]"
        }
      ],
      "name": "getExpectAmountIn",
      "outputs": [
        {
          "internalType": "uint256",
          "name": "",
          "type": "uint256"
        }
      ],
      "stateMutability": "view",
      "type": "function"
    },
    {
      "inputs": [
        {
          "internalType": "uint256",
          "name": "amountIn_",
          "type": "uint256"
        },
        {
          "internalType": "address[]",
          "name": "path_",
          "type": "address[]"
        }
      ],
      "name": "getExpectAmountOut",
      "outputs": [
        {
          "internalType": "uint256",
          "name": "",
          "type": "uint256"
        }
      ],
      "stateMutability": "view",
      "type": "function"
    },
    {
      "inputs": [],
      "name": "getWETH",
      "outputs": [
        {
          "internalType": "address",
          "name": "",
          "type": "address"
        }
      ],
      "stateMutability": "view",
      "type": "function"
    },
    {
      "inputs": [],
      "name": "owner",
      "outputs": [
        {
          "internalType": "address",
          "name": "",
          "type": "address"
        }
      ],
      "stateMutability": "view",
      "type": "function"
    },
    {
      "inputs": [],
      "name": "renounceOwnership",
      "outputs": [],
      "stateMutability": "nonpayable",
      "type": "function"
    },
    {
      "inputs": [],
      "name": "routerV2",
      "outputs": [
        {
          "internalType": "contract IUniswapV2Router02",
          "name": "",
          "type": "address"
        }
      ],
      "stateMutability": "view",
      "type": "function"
    },
    {
      "inputs": [
        {
          "internalType": "address",
          "name": "tokenOut_",
          "type": "address"
        }
      ],
      "name": "swapETHToToken",
      "outputs": [],
      "stateMutability": "payable",
      "type": "function"
    },
    {
      "inputs": [
        {
          "internalType": "uint256",
          "name": "amount_",
          "type": "uint256"
        },
        {
          "internalType": "address",
          "name": "tokenAddr_",
          "type": "address"
        }
      ],
      "name": "swapTokenToETH",
      "outputs": [],
      "stateMutability": "nonpayable",
      "type": "function"
    },
    {
      "inputs": [
        {
          "internalType": "uint256",
          "name": "amountIn_",
          "type": "uint256"
        },
        {
          "internalType": "address[]",
          "name": "path_",
          "type": "address[]"
        }
      ],
      "name": "swapTokenToToken",
      "outputs": [],
      "stateMutability": "nonpayable",
      "type": "function"
    },
    {
      "inputs": [
        {
          "internalType": "address",
          "name": "newOwner",
          "type": "address"
        }
      ],
      "name": "transferOwnership",
      "outputs": [],
      "stateMutability": "nonpayable",
      "type": "function"
    },
    {
      "stateMutability": "payable",
      "type": "receive"
    }
  ],
  "bytecode": "0x608060405234801561001057600080fd5b5060405162001ca038038062001ca0833981016040819052610031916100af565b61003a3361005f565b600280546001600160a01b0319166001600160a01b03929092169190911790556100df565b600080546001600160a01b038381166001600160a01b0319831681178455604051919092169283917f8be0079c531659141344cd1fd0a4f28419497f9722a3daafe3b4186f6b6457e09190a35050565b6000602082840312156100c157600080fd5b81516001600160a01b03811681146100d857600080fd5b9392505050565b611bb180620000ef6000396000f3fe6080604052600436106100c65760003560e01c806359b751ba1161007f578063cae5f11e11610059578063cae5f11e14610205578063d673f4981461021a578063f2fde38b1461023a578063f71f868d1461025a57600080fd5b806359b751ba146101bf578063715018a6146101d25780638da5cb5b146101e757600080fd5b806334a7552f146100d257806339ba86d9146101055780634a147718146101275780634b2fc7bb14610147578063502f7446146101675780635042d7dd1461019f57600080fd5b366100cd57005b600080fd5b3480156100de57600080fd5b506100f26100ed3660046117ef565b61026d565b6040519081526020015b60405180910390f35b34801561011157600080fd5b506101256101203660046117ef565b610322565b005b34801561013357600080fd5b506101256101423660046117bf565b6104c3565b34801561015357600080fd5b5061012561016236600461161e565b610672565b34801561017357600080fd5b50600254610187906001600160a01b031681565b6040516001600160a01b0390911681526020016100fc565b3480156101ab57600080fd5b506100f26101ba3660046117ef565b610948565b6101256101cd36600461167d565b6109ea565b3480156101de57600080fd5b50610125610c79565b3480156101f357600080fd5b506000546001600160a01b0316610187565b34801561021157600080fd5b50610187610c8d565b34801561022657600080fd5b506100f26102353660046115dd565b610d0f565b34801561024657600080fd5b506101256102553660046115a3565b610d24565b6101256102683660046115a3565b610d9d565b60025460405163d06ca61f60e01b815260009182916001600160a01b039091169063d06ca61f906102a690889088908890600401611a22565b60006040518083038186803b1580156102be57600080fd5b505afa1580156102d2573d6000803e3d6000fd5b505050506040513d6000823e601f3d908101601f191682016040526102fa91908101906116bf565b90508060018151811061030f5761030f611b3a565b60200260200101519150505b9392505050565b33806103495760405162461bcd60e51b8152600401610340906119fc565b60405180910390fd5b60008383828161035b5761035b611b3a565b905060200201602081019061037091906115a3565b6001600160a01b0316141580156103b8575060008383600181811061039757610397611b3a565b90506020020160208101906103ac91906115a3565b6001600160a01b031614155b6103d45760405162461bcd60e51b8152600401610340906119d0565b600084116103f45760405162461bcd60e51b8152600401610340906119a2565b60008383600081811061040957610409611b3a565b905060200201602081019061041e91906115a3565b90506104356001600160a01b038216833088610f45565b60025461044f906001600160a01b03838116911687610fb6565b600254604051635c11d79560e01b81526001600160a01b0390911690635c11d7959061048a9088906000908990899089904290600401611a45565b600060405180830381600087803b1580156104a457600080fd5b505af11580156104b8573d6000803e3d6000fd5b505050505050505050565b33806104e15760405162461bcd60e51b8152600401610340906119fc565b6001600160a01b0382166105075760405162461bcd60e51b8152600401610340906119d0565b600083116105275760405162461bcd60e51b8152600401610340906119a2565b8161053d6001600160a01b038216833087610f45565b604080516002808252606082018352600092602083019080368337019050509050838160008151811061057257610572611b3a565b6001600160a01b03928316602091820292909201810191909152600254604080516315ab88c960e31b81529051919093169263ad5c4648926004808301939192829003018186803b1580156105c657600080fd5b505afa1580156105da573d6000803e3d6000fd5b505050506040513d601f19601f820116820180604052508101906105fe91906115c0565b8160018151811061061157610611611b3a565b6001600160a01b03928316602091820292909201015260025461063991848116911687610fb6565b60025460405163791ac94760e01b81526001600160a01b039091169063791ac9479061048a908890600090869089904290600401611a83565b336001600160a01b0382166106c55760405162461bcd60e51b8152602060048201526019602482015278726563697069656e74206973207a65726f206164647265737360381b6044820152606401610340565b6001600160a01b0381166107145760405162461bcd60e51b815260206004820152601660248201527563616c6c6572206973207a65726f206164647265737360501b6044820152606401610340565b6001600160a01b0386161580159061073457506001600160a01b03851615155b6107765760405162461bcd60e51b815260206004820152601360248201527234b73b30b634b232903a37b5b2b7103830b4b960691b6044820152606401610340565b6000841180156107865750600083115b6107d25760405162461bcd60e51b815260206004820152601a60248201527f696e76616c69646520746f6b656e207061697220616d6f756e740000000000006044820152606401610340565b858560006107e18383896110df565b90508086101561082b5760405162461bcd60e51b81526020600482015260156024820152741a5b9cdd59999a58da595b9d081088185b5bdd5b9d605a1b6044820152606401610340565b6108406001600160a01b03841685308a610f45565b6108556001600160a01b038316853089610f45565b60025461086f906001600160a01b03858116911689610fb6565b600254610889906001600160a01b03848116911688610fb6565b60025460405162e8e33760e81b81526001600160a01b038b811660048301528a81166024830152604482018a90526064820189905260006084830181905260a483015287811660c48301524260e48301529091169063e8e337009061010401606060405180830381600087803b15801561090257600080fd5b505af1158015610916573d6000803e3d6000fd5b505050506040513d601f19601f8201168201806040525081019061093a919061186e565b505050505050505050505050565b6002546040516307c0329d60e21b815260009182916001600160a01b0390911690631f00ca749061098190889088908890600401611a22565b60006040518083038186803b15801561099957600080fd5b505afa1580156109ad573d6000803e3d6000fd5b505050506040513d6000823e601f3d908101601f191682016040526109d591908101906116bf565b90508060008151811061030f5761030f611b3a565b3360006109f5610c8d565b9050346001600160a01b038416610a4a5760405162461bcd60e51b8152602060048201526019602482015278726563697069656e74206973207a65726f206164647265737360381b6044820152606401610340565b6001600160a01b038316610a995760405162461bcd60e51b815260206004820152601660248201527563616c6c6572206973207a65726f206164647265737360501b6044820152606401610340565b6001600160a01b038616610ae55760405162461bcd60e51b815260206004820152601360248201527234b73b30b634b232903a37b5b2b7103830b4b960691b6044820152606401610340565b600085118015610af55750600081115b610b415760405162461bcd60e51b815260206004820152601a60248201527f696e76616c69646520746f6b656e207061697220616d6f756e740000000000006044820152606401610340565b856000610b4f8285896110df565b905080831015610b995760405162461bcd60e51b81526020600482015260156024820152741a5b9cdd59999a58da595b9d081088185b5bdd5b9d605a1b6044820152606401610340565b610bae6001600160a01b03831686308a610f45565b600254610bc8906001600160a01b03848116911689610fb6565b60025460405163f305d71960e01b81526001600160a01b038a81166004830152602482018a9052600060448301819052606483015288811660848301524260a48301529091169063f305d71990859060c4016060604051808303818588803b158015610c3357600080fd5b505af1158015610c47573d6000803e3d6000fd5b50505050506040513d601f19601f82011682018060405250810190610c6c919061186e565b5050505050505050505050565b610c81611323565b610c8b600061137d565b565b600254604080516315ab88c960e31b815290516000926001600160a01b03169163ad5c4648916004808301926020929190829003018186803b158015610cd257600080fd5b505afa158015610ce6573d6000803e3d6000fd5b505050506040513d601f19601f82011682018060405250810190610d0a91906115c0565b905090565b6000610d1c8484846110df565b949350505050565b610d2c611323565b6001600160a01b038116610d915760405162461bcd60e51b815260206004820152602660248201527f4f776e61626c653a206e6577206f776e657220697320746865207a65726f206160448201526564647265737360d01b6064820152608401610340565b610d9a8161137d565b50565b343380610dbc5760405162461bcd60e51b8152600401610340906119fc565b6001600160a01b038316610de25760405162461bcd60e51b8152600401610340906119d0565b60008211610e025760405162461bcd60e51b8152600401610340906119a2565b6040805160028082526060820183526000926020830190803683375050600254604080516315ab88c960e31b815290519394506001600160a01b039091169263ad5c464892506004808301926020929190829003018186803b158015610e6757600080fd5b505afa158015610e7b573d6000803e3d6000fd5b505050506040513d601f19601f82011682018060405250810190610e9f91906115c0565b81600081518110610eb257610eb2611b3a565b60200260200101906001600160a01b031690816001600160a01b0316815250508381600181518110610ee657610ee6611b3a565b6001600160a01b03928316602091820292909201015260025460405163b6f9de9560e01b815291169063b6f9de95908590610f2c9060009086908890429060040161193a565b6000604051808303818588803b1580156104a457600080fd5b6040516001600160a01b0380851660248301528316604482015260648101829052610fb09085906323b872dd60e01b906084015b60408051601f198184030181529190526020810180516001600160e01b03166001600160e01b0319909316929092179091526113cd565b50505050565b80158061103f5750604051636eb1769f60e11b81523060048201526001600160a01b03838116602483015284169063dd62ed3e9060440160206040518083038186803b15801561100557600080fd5b505afa158015611019573d6000803e3d6000fd5b505050506040513d601f19601f8201168201806040525081019061103d91906117a6565b155b6110aa5760405162461bcd60e51b815260206004820152603660248201527f5361666545524332303a20617070726f76652066726f6d206e6f6e2d7a65726f60448201527520746f206e6f6e2d7a65726f20616c6c6f77616e636560501b6064820152608401610340565b6040516001600160a01b0383166024820152604481018290526110da90849063095ea7b360e01b90606401610f79565b505050565b600080600260009054906101000a90046001600160a01b03166001600160a01b031663c45a01556040518163ffffffff1660e01b815260040160206040518083038186803b15801561113057600080fd5b505afa158015611144573d6000803e3d6000fd5b505050506040513d601f19601f8201168201806040525081019061116891906115c0565b60405163e6a4390560e01b81526001600160a01b0387811660048301528681166024830152919091169063e6a439059060440160206040518083038186803b1580156111b357600080fd5b505afa1580156111c7573d6000803e3d6000fd5b505050506040513d601f19601f820116820180604052508101906111eb91906115c0565b90506001600160a01b03811661120557600091505061031b565b6040516370a0823160e01b81526001600160a01b038281166004830152600091908716906370a082319060240160206040518083038186803b15801561124a57600080fd5b505afa15801561125e573d6000803e3d6000fd5b505050506040513d601f19601f8201168201806040525081019061128291906117a6565b6040516370a0823160e01b81526001600160a01b0384811660048301529192506000918716906370a082319060240160206040518083038186803b1580156112c957600080fd5b505afa1580156112dd573d6000803e3d6000fd5b505050506040513d601f19601f8201168201806040525081019061130191906117a6565b90508161130e8683611ae1565b6113189190611abf565b979650505050505050565b6000546001600160a01b03163314610c8b5760405162461bcd60e51b815260206004820181905260248201527f4f776e61626c653a2063616c6c6572206973206e6f7420746865206f776e65726044820152606401610340565b600080546001600160a01b038381166001600160a01b0319831681178455604051919092169283917f8be0079c531659141344cd1fd0a4f28419497f9722a3daafe3b4186f6b6457e09190a35050565b6000611422826040518060400160405280602081526020017f5361666545524332303a206c6f772d6c6576656c2063616c6c206661696c6564815250856001600160a01b031661149f9092919063ffffffff16565b8051909150156110da57808060200190518101906114409190611784565b6110da5760405162461bcd60e51b815260206004820152602a60248201527f5361666545524332303a204552433230206f7065726174696f6e20646964206e6044820152691bdd081cdd58d8d9595960b21b6064820152608401610340565b6060610d1c8484600085856001600160a01b0385163b6115015760405162461bcd60e51b815260206004820152601d60248201527f416464726573733a2063616c6c20746f206e6f6e2d636f6e74726163740000006044820152606401610340565b600080866001600160a01b0316858760405161151d919061191e565b60006040518083038185875af1925050503d806000811461155a576040519150601f19603f3d011682016040523d82523d6000602084013e61155f565b606091505b50915091506113188282866060831561157957508161031b565b8251156115895782518084602001fd5b8160405162461bcd60e51b8152600401610340919061196f565b6000602082840312156115b557600080fd5b813561031b81611b66565b6000602082840312156115d257600080fd5b815161031b81611b66565b6000806000606084860312156115f257600080fd5b83356115fd81611b66565b9250602084013561160d81611b66565b929592945050506040919091013590565b600080600080600060a0868803121561163657600080fd5b853561164181611b66565b9450602086013561165181611b66565b93506040860135925060608601359150608086013561166f81611b66565b809150509295509295909350565b60008060006060848603121561169257600080fd5b833561169d81611b66565b92506020840135915060408401356116b481611b66565b809150509250925092565b600060208083850312156116d257600080fd5b825167ffffffffffffffff808211156116ea57600080fd5b818501915085601f8301126116fe57600080fd5b81518181111561171057611710611b50565b8060051b604051601f19603f8301168101818110858211171561173557611735611b50565b604052828152858101935084860182860187018a101561175457600080fd5b600095505b83861015611777578051855260019590950194938601938601611759565b5098975050505050505050565b60006020828403121561179657600080fd5b8151801515811461031b57600080fd5b6000602082840312156117b857600080fd5b5051919050565b600080604083850312156117d257600080fd5b8235915060208301356117e481611b66565b809150509250929050565b60008060006040848603121561180457600080fd5b83359250602084013567ffffffffffffffff8082111561182357600080fd5b818601915086601f83011261183757600080fd5b81358181111561184657600080fd5b8760208260051b850101111561185b57600080fd5b6020830194508093505050509250925092565b60008060006060848603121561188357600080fd5b8351925060208401519150604084015190509250925092565b8183526000602080850194508260005b858110156118da5781356118bf81611b66565b6001600160a01b0316875295820195908201906001016118ac565b509495945050505050565b600081518084526020808501945080840160005b838110156118da5781516001600160a01b0316875295820195908201906001016118f9565b60008251611930818460208701611b0e565b9190910192915050565b84815260806020820152600061195360808301866118e5565b6001600160a01b03949094166040830152506060015292915050565b602081526000825180602084015261198e816040850160208701611b0e565b601f01601f19169190910160400192915050565b6020808252601490820152731a5b9d985b1a59081d1bdad95b88185b5bdd5b9d60621b604082015260600190565b6020808252601290820152717a65726f20746f6b656e206164647265737360701b604082015260600190565b6020808252600c908201526b7a65726f206164647265737360a01b604082015260600190565b838152604060208201526000611a3c60408301848661189c565b95945050505050565b86815285602082015260a060408201526000611a6560a08301868861189c565b6001600160a01b039490941660608301525060800152949350505050565b85815284602082015260a060408201526000611aa260a08301866118e5565b6001600160a01b0394909416606083015250608001529392505050565b600082611adc57634e487b7160e01b600052601260045260246000fd5b500490565b6000816000190483118215151615611b0957634e487b7160e01b600052601160045260246000fd5b500290565b60005b83811015611b29578181015183820152602001611b11565b83811115610fb05750506000910152565b634e487b7160e01b600052603260045260246000fd5b634e487b7160e01b600052604160045260246000fd5b6001600160a01b0381168114610d9a57600080fdfea2646970667358221220d2f90adbc27788d1742932c8f99304c7311729d9c3fea3d4dee921f05fd6929164736f6c63430008070033",
  "linkReferences": {},
  "deployedLinkReferences": {}
}